:020000040000FA
:100000008A110F2802280800FE00030E8312031332
:10001000B7000408B8000A08B9008A15DE298A1159
:1000200011288313E830FD000830FE006D30FF001A
:10003000E43084008A1520218A115D30FD000830EB
:10004000FE007B30FF00513084008A1520218A1188
:1000500083160313E001E101E201E30183120313BC
:10006000DD01DE01DF01E001E101E201E3018301E5
:100070008A11962F831603132308803983120313E2
:10008000CA004A0883160313A80023088312031327
:10009000CA004A07CB004B0883160313AE00A21F09
:1000A0005228532854282E142E080319582859284A
:1000B00068282E0A031D5D285E2866280030A300EC
:1000C0000030A2000030A1000030A000A21770286C
:1000D0000030A3000030A2000030A1000030A000DA
:1000E0002708803983120313CA004A0883160313B2
:1000F000A806270883120313CA004A07CB004B083F
:1001000083160313A900A61F862887288828291488
:10011000290803198C288D289C28290A031D912859
:1001200092289A280030A7000030A6000030A500D1
:100130000030A400A617A4280030A7000030A600B5
:100140000030A5000030A40029080319A828A92818
:10015000AE282E08031DAD28AE28B7280030A30016
:100160000030A2000030A1000030A0007C2D20084B
:1001700083120313CA004A08BA0083160313260821
:100180008A1593228A11831203133B0883160313E3
:10019000B400831203133A0883160313B300330821
:1001A00083120313CA00CB01CC01CD014D08831685
:1001B0000313AD00831203134C0883160313AC0022
:1001C000831203134B0883160313AB00831203132C
:1001D0004A0883160313AA00340883120313CA00C3
:1001E000CB01CC01CD014D0883160313B20083125D
:1001F00003134C0883160313B100831203134B0837
:1002000083160313B000831203134A0883160313E3
:10021000AF00210883120313CA004A08BA008316EC
:10022000031325088A1593228A11831203133B08AE
:1002300083160313B400831203133A0883160313BF
:10024000B300330883120313CA00CB01CC01CD01E4
:100250004A0883160313AA07831203134B080311DA
:100260000318013E0319372983160313AB078312C2
:1002700003134C0803110318013E03194229831686
:100280000313AC07831203134D0803110318013E37
:1002900003194D2983160313AD0783120313831625
:1002A0000313340883120313CA00CB01CC01CD0120
:1002B0004A0883160313AF07831203134B08031175
:1002C0000318013E0319672983160313B00783122D
:1002D00003134C0803110318013E031972298316F6
:1002E0000313B107831203134D0803110318013ED2
:1002F00003197D2983160313B20783120313831690
:100300000313220883120313CA004A08BA00831693
:10031000031324088A1593228A11831203133B08BE
:1003200083160313B400831203133A0883160313CE
:10033000B300330883120313CA00CB01CC01CD01F3
:100340004A0883160313AA07831203134B080311E9
:100350000318013E0319AF2983160313AB07831259
:1003600003134C0803110318013E0319BA2983161D
:100370000313AC07831203134D0803110318013E46
:100380000319C52983160313AD07831203138316BC
:100390000313340883120313CA00CB01CC01CD012F
:1003A0004A0883160313AF07831203134B08031184
:1003B0000318013E0319DF2983160313B0078312C4
:1003C00003134C0803110318013E0319EA2983168D
:1003D0000313B107831203134D0803110318013EE1
:1003E0000319F52983160313B20783120313831627
:1003F0000313083083120313CA0003108316031378
:10040000AA0DAB0DAC0DAD0D83120313CA0BFD2964
:1004100083160313210883120313CA004A08BA0083
:100420008316031324088A1593228A118312031357
:100430003B0883160313B400831203133A08831690
:100440000313B300330883120313CA008316031384
:10045000340883120313CB00CC01CD014A08831664
:100460000313AA07831203134B0803110318013E59
:1004700003193D2A83160313AB07831203134C0899
:1004800003110318013E0319482A83160313AC070E
:10049000831203134D0803110318013E0319532A55
:1004A00083160313AD078312031383160313200867
:1004B00083120313CA004A08BA00831603132508DF
:1004C0008A1593228A11831203133B0883160313A0
:1004D000B400831203133A0883160313B3003308DE
:1004E00083120313CA008316031334088312031301
:1004F000CB00CC01CD014A0883160313AA0783124F
:1005000003134B0803110318013E03198A2A8316AB
:100510000313AB07831203134C0803110318013EA6
:100520000319952A83160313AC07831203134D088E
:1005300003110318013E0319A02A83160313AD0704
:100540008312031383160313083083120313CA00A4
:10055000031083160313AA0DAB0DAC0DAD0D831262
:100560000313CA0BA82A831603132008831203134C
:10057000CA004A08BA008316031324088A15932276
:100580008A11831203133B0883160313B4008312EA
:1005900003133A0883160313B300330883120313BB
:1005A000CA0083160313340883120313CB00CC0153
:1005B000CD014A0883160313AA07831203134B08BD
:1005C00003110318013E0319E82A83160313AB072E
:1005D000831203134C0803110318013E0319F32A75
:1005E00083160313AC07831203134D08031103187A
:1005F000013E0319FE2A83160313AD07831203136A
:1006000083160313210883120313CA004A08BA0091
:100610008316031326088A1593228A118312031363
:100620003B0883160313B400831203133A0883169E
:100630000313B300330883120313CA008316031392
:10064000340883120313CB00CC01CD014A08831672
:100650000313AF07831203134B0803110318013E62
:100660000319352B83160313B007831203134C08A9
:1006700003110318013E0319402B83160313B1071E
:10068000831203134D0803110318013E03194B2B6A
:1006900083160313B207831203138316031322086E
:1006A00083120313CA004A08BA00831603132508ED
:1006B0008A1593228A11831203133B0883160313AE
:1006C000B400831203133A0883160313B3003308EC
:1006D00083120313CA00831603133408831203130F
:1006E000CB00CC01CD014A0883160313AF07831258
:1006F00003134B0803110318013E0319822B8316C1
:100700000313B007831203134C0803110318013EAF
:1007100003198D2B83160313B107831203134D089E
:1007200003110318013E0319982B83160313B20714
:100730008312031383160313220883120313CA00C0
:100740004A08BA008316031326088A1593228A11D1
:10075000831203133B0883160313B400831203139D
:100760003A0883160313B300330883120313CA0035
:1007700083160313340883120313CB00CC01CD017D
:1007800008300310CA0DCB0DCC0DCD0DFF3E031D5F
:10079000C12B4A0883160313AF07831203134B08B8
:1007A00003110318013E0319D82B83160313B00756
:1007B000831203134C0803110318013E0319E32BA2
:1007C00083160313B107831203134D080311031893
:1007D000013E0319EE2B83160313B2078312031392
:1007E000831603132A0883120313CA008316031304
:1007F0002B0883120313CB00831603132C088312D8
:100800000313CC00831603132D0883120313CD00AA
:1008100018300310CD0CCC0CCB0CCA0CFF3E031DC2
:10082000092C4A0883160313AF07831203134B08DE
:1008300003110318013E0319202C83160313B0077C
:10084000831203134C0803110318013E03192B2CC8
:1008500083160313B107831203134D080311031802
:10086000013E0319362C83160313B20783120313B8
:1008700083160313083083120313CA000310831670
:100880000313AA0DAB0DAC0DAD0D83120313CA0BF0
:100890003E2C831603132E08290783120313CA0064
:1008A000CB01CB0D4A08823E83160313B30083129B
:1008B00003134B080318013EFF3E83160313B400D5
:1008C0008E2C013083120313CA0003108316031306
:1008D000AF0DB00DB10DB20D83120313CA0B652C11
:1008E00083160313AD1F752C762C772C2F14013033
:1008F00083120313CA00031083160313AA0DAB0D52
:10090000AC0DAD0D83120313CA0B7B2CFF30831685
:100910000313B3070318B40AFF30B407B11F912CB7
:10092000922C612CA901AD1F962C972CC52CFF3061
:100930002A0583120313CA00FF30831603132B0505
:1009400083120313CB00FF30831603132C0583128D
:100950000313CC007F30831603132D05831203137A
:10096000CD004D084C044B044A040319B82CB92C93
:10097000BE2C83160313A901A90AC52C83160313E1
:100980002F1CC32CC42CC52CB92C29080319C92C25
:10099000CA2C172D0130AF07003003180130B00703
:1009A000003003180130B107003003180130B207DE
:1009B000321CDB2CDC2C172D2F0883120313CA00EA
:1009C00083160313300883120313CB00831603131B
:1009D000310883120313CC008316031332088312E9
:1009E0000313CD000130CE004D0DCD0CCC0CCB0C43
:1009F000CA0CCE0BF42C4D0883160313B2008312DD
:100A000003134C0883160313B100831203134B081E
:100A100083160313B000831203134A0883160313CB
:100A2000AF000130B3070318B40A0030B40734082C
:100A3000803AFF0080307F02031D202DFF303302FB
:100A4000031C232D242D2F2D7F3083160313B2007A
:100A50008030B1000030B0000030AF006C2D831644
:100A600003133408803AFF0080307F02031D3A2DC3
:100A70000130330203183D2D3E2D4A2D00308316E0
:100A80000313B2000030B1000030B0000030AF00FE
:100A9000A8016C2D83160313330883120313CA00B5
:100AA0004A0883160313AE00FF30AF05FF30B005D0
:100AB0007F30B1050030B2052E1C5F2D602D612DF9
:100AC000B1172E0883120313CA0003104A0CCB007F
:100AD0004B0883160313B200280883120313CA00BD
:100AE0004A0883160313B2043208A3003108A20097
:100AF0003008A1002F08A000080083160313A500EA
:100B0000493083120313CB004B0883160313A00054
:100B1000922E2530260603198E2D8F2DA32D260803
:100B200083120313CB00831603132508840083125A
:100B300003134B08831380000130CB004B0883164E
:100B40000313A507922EA101013083120313C807D6
:100B5000FF30480784008A150A208A118316031380
:100B6000A60083120313CB00CC014C08003A0319F2
:100B7000BA2D922E4B08003A0319A52E643A031998
:100B8000C52D0D3A0319C52D922E83160313200887
:100B9000840083130008A300840A0008A400023024
:100BA00083120313CB004B0883160313A007A41F63
:100BB000DA2DDB2DE82D033083120313CB004B0815
:100BC00083160313A104A309A409A30A0319A40A01
:100BD000A601A60A260883120313CB004B07013E89
:100BE00084008A150A208A11CC008A150A208A11ED
:100BF000CD004D08831603132402031D052E831216
:100C000003134C088316031323020318082E092E1E
:100C10000A2E182E013083120313CB004B088316C3
:100C20000313A60705302606031D172E182EEA2DDE
:100C30002108033903191D2E1E2E312E2D3083124B
:100C40000313CB00831603132508840083120313B8
:100C50004B08831380000130CB004B08831603132D
:100C6000A507260883120313CB004B088316031332
:100C7000A200852E0A3083120313C2000030C30085
:100C800083160313220883120313CB004B07013E84
:100C900084008A150A208A11BA008A150A208A114E
:100CA000BB0083160313240883120313BD008316AD
:100CB0000313230883120313BC008A158E248A11A0
:100CC000831203133B08C5003A08C4008A15D423D5
:100CD0008A11831203134208303ECC004C0883165D
:100CE0000313A600260883120313CB0083160313F5
:100CF00025088400831203134B08831380000130FE
:100D0000CB004B0883160313A507FF308312031390
:100D1000CB004B0883160313A207220A031D912E52
:100D2000922E3A2E01308312C807FF304807840004
:100D30008A150A208A11CB004B0883160313A600DC
:100D40002608031DA42EA52E892D8316031325081E
:100D500084008313800108005C2F8A15CB208A1140
:100D600037308A15BC228A11952F8A15CB208A111B
:100D700038308A15BC228A11952F8A15CB208A110A
:100D800039308A15BC228A11952F8A15CB208A11F9
:100D900034308A15BC228A11952F8A15CB208A11EE
:100DA00035308A15BC228A11952F8A15CB208A11DD
:100DB00036308A15BC228A11952F8A15CB208A11CC
:100DC00031308A15BC228A11952F8A15CB208A11C1
:100DD00032308A15BC228A11952F8A15CB208A11B0
:100DE00033308A15BC228A11952F30308A15BC22E7
:100DF0008A11952F013083160313E4000030E500BB
:100E0000013083120313DB000030DC000130D90015
:100E10000030DA000030A000A1000530A200003050
:100E2000A3005F308A15BC218A1183120313DD01F0
:100E3000DE01952F013083160313E2000030E3003A
:100E4000E001E101952F83160313E201E301013074
:100E5000E0000030E100013083120313A0000030F5
:100E6000A1008A1594208A11952F83160313E2019D
:100E7000E3010130E0000030E1000230831203138F
:100E8000A0000030A1008A1594208A11952F5F30B0
:100E90008A158D258A1183120313270883160313DD
:100EA000E70083120313260883160313E600831258
:100EB0000313DB01DC01952F831203130608B20034
:100EC000B3013308003A0319662F952F3208773A99
:100ED0000319352F0C3A0319232F063A03191A2F39
:100EE000033A0319FA2EC93A0319472F0C3A03198A
:100EF000ED2E063A0319D52E033A0319BD2E693A91
:100F00000319F52E0C3A0319E52E063A0319CD2ED6
:100F1000033A0319B52E353A0319DD2E063A0319A3
:100F2000C52E033A0319AD2E952F08008A156B21A3
:100F30008A118A1571208A118A150B218A110130B4
:100F400083160313DE000030DF00E82F6408650419
:100F50000319AB2FAC2FB82F8A1540238A118316A3
:100F60000313E401E5010130E0000030E100E82F67
:100F7000600861040319BD2FBE2FD02FC330831624
:100F80000313DD00CC30DC00DC0BC42FDD0BC42FE1
:100F9000C92F8A15A1208A118A15A1238A11E82F49
:100FA000620863040319D52FD62FE82FC3308316A8
:100FB0000313DD00CC30DC00DC0BDC2FDD0BDC2F81
:100FC000E12F8A15A1208A118A159E268A11E82F01
:100FD000831603135E085F04031DEF2FF02FA62F67
:100FE0008A1102208A118A110F28FE3083120313FE
:100FF0008600FD308600FB308600F7308600080052
:10100000FF1B0A2883137F1883170008840A03191B
:10101000FF0A080008308A000408840A82070034A6
:10102000013400340A34003464340034E8340334C6
:101030001034273449346E34673472346534733471
:1010400065342034743465346D34703420344D3458
:101050004134583449344D344134003425346434F7
:0C10600027344334003425346434003459
:1010DA000134003496340034073083160313810038
:1010EA00F03086008B158B170B14080050344534EA
:1010FA004C344934473452344F34203401340034A8
:10110A0001340034013083120313A1000030A2001D
:10111A000030A300A4008A1510248A1508000230A2
:10112A008312031320062104031D9C289D289F284F
:10113A009F15A0289F110800013083120313BB00DA
:10114A000030BC000030BD00BE008A154F248A154D
:10115A0008000230831203133A063B04031DB62823
:10116A00B728B9289F15BA289F11080083120313BC
:10117A008714C73083120313A000C328A00BC22808
:10118A00C628000083120313871008008312031372
:10119A0059035A04031DD228D328DA288A1587202E
:1011AA008A1583120313D901DA0108008312031383
:1011BA008714C73083120313BA00E328BA0BE22854
:1011CA00E62800008312031387100800831603130E
:1011DA004D0883120313CA00831603134E088312A1
:1011EA000313CB008A156E238A1508008312031392
:1011FA001F151F1901290229FE281E08BB00831684
:10120A0003131E0883120313BA000800831603137C
:10121A00870183120313981718128316031398165B
:10122A00181218150C168C121930990008007E082D
:10123A008A007F0882008A151C218A158000840A88
:10124A0004087D0603190034FF0A0319FE0A20293F
:10125A0083120313A100A0013A3021020318362990
:10126A0037293F2930302102031C3C293D293F29D7
:10127A00A001A00A200C0800033083120313A10066
:10128A000030A2000330870007108A15BB208A1598
:10129A00383083120313870007108A15BB208A157A
:1012AA000800033083120313BB000030BC00033074
:1012BA00870007108A15DB208A153830831203133A
:1012CA00870007108A15DB208A15080080308316EC
:1012DA00031387000130850080309F00013083129C
:1012EA0003139F001F170830BB000030BC000030FA
:1012FA00BD00BE008A154F248A15080046308400B6
:10130A00513083120313C2000408C3000830C4001A
:10131A004208840083130008C500C20A43088400F7
:10132A0045088000C30AC40B8D2946308A15E72276
:10133A008A150800831203133B08831603136702F6
:10134A00031DAD29831203133A0883160313660299
:10135A00031CB029B2290130B329003083120313C8
:10136A00BC00BD013C08BA003D08BB00080083125E
:10137A000313A5002508A4002408A600CF292008E5
:10138A00A400260884002408831380000130A400E6
:10139A002408A6070130A2020030031CA303A302FB
:1013AA00220A031DDC29230A031DDC29DD29C4299D
:1013BA0008000B1CE129E229F4298A11AC268A15B6
:1013CA00023083120313B6000430B500BA30B400F9
:1013DA00B40BED29B50BED29B60BED290B108B17C4
:1013EA008312031339088A0038088400370E8300F1
:1013FA00FE0E7E0E0900831203133A08BC003B0856
:10140A00BD000D2A0130BC070318BD0A0030BD0714
:10141A003D08FF003C0884008A1500208A15003A1E
:10142A00031D182A192A072A3A083C02BA003B085F
:10143A00031C3B0A3D02BB00080083120313AF00E2
:10144A002B08803EA1002C080318013E003EA20092
:10145A000030A300A4008A1510248A1583120313EE
:10146A002F08AD00AE012D08A1002E08A200013000
:10147A00A3000030A4008A1510248A158A15412178
:10148A008A15080083120313C9004508803EBB0071
:10149A0046080318013E003EBC000030BD00BE00F5
:1014AA008A154F248A15831203134908C700C801F5
:1014BA004708BB004808BC000130BD000030BE0030
:1014CA008A154F248A158A1556218A15080083120F
:1014DA000313A401A501201C732A742A7A2A22085C
:1014EA00A4070318A50A2308A50701300310A20DB3
:1014FA00A30DFF3E031D7B2A01300310A10CA00C93
:10150A00FF3E031D822A20082104031D8D2A8E2AEC
:10151A00702A2508A1002408A000080083120313DA
:10152A00C200BE01BF013A08BC00BD013C08C000B0
:10153A003D08C100421CA22AA32AA92A4008BE07C4
:10154A000318BF0A4108BF0701300310C00DC10DBF
:10155A00FF3E031DAA2A0310C20C4208031DB62A25
:10156A00B72A9F2A3F08BB003E08BA000800831228
:10157A000313B1005B085C040319C42AC52AE62ACE
:10158A0000305E02033003195D020318CD2ACE2A09
:10159A00E62A3108B0005D085F3E840030088313F4
:1015AA0080005E08AC005D08AB0031088A15222273
:1015BA008A15013083120313DD070318DE0A00308F
:1015CA00DE07080083120313C100BF01C001FF2A0E
:1015DA000C1EF02AF12AED2A3F084107BE003E08F8
:1015EA0084008313000899000130BF070318C00A5A
:1015FA000030C0074108BA000030BB008A1500223B
:10160A008A15831203133B084002031D0E2B3A0866
:10161A003F02031C112B122BED2A0800831203131D
:10162A00BC003C08BB003B08BD001F2B0130BB00BF
:10163A003B08BD073D08840083130008031D262BC1
:10164A00272B1B2B302B0130BB003B08BD07013079
:10165A00BB003B08BA073A0884008A150A208A1593
:10166A00BB003D0884003B0880000008031D3E2B98
:10167A003F2B282B08000B3083160313CD00803034
:10168A00CE008A15EB208A150B3083160313CD0082
:10169A008030CE008A15EB208A15562B8A11F52741
:1016AA008A15831203135B035C0403195D2B5E2BFB
:1016BA00532B00308316031367029730031966020F
:1016CA00031C682B692B6D2B9630E6000030E7006F
:1016DA00080083120313CC01CD018D2B4D08C600DF
:1016EA004C08C5004C084A0784004D0803184D0AE7
:1016FA004B07FF008A1500208A158A1547228A158A
:10170A00013083120313CC070318CD0A0030CD072A
:10171A004A08BA004B08BB008A1500228A158312B0
:10172A0003133B084D02031D9C2B3A084C02031C71
:10173A009F2BA02B732B08008A15D4248A15831695
:10174A0003133F08D2003E08D10052088312031344
:10175A00BB0083160313510883120313BA008A15B8
:10176A009F218A15831203133A083B040319BE2BDF
:10177A00BF2BC22B8A1583218A158A1521258A1522
:10178A0083160313CF00D0014F08CD005008CE00B6
:10179A008A15EB208A158A11F5278A150800831203
:1017AA000313420843040319DB2BDC2B0B2CC70160
:1017BA00C70AEA2B01300310C20DC30DFF3E031DF9
:1017CA00E02B0130C6004608C707C31FED2BEE2BDE
:1017DA00DF2B43084502031DF42B42084402031C75
:1017EA00F72BF82BFE2B4208C4024308031CC5033F
:1017FA00C50201300310C30CC20CFF3E031DFF2BB0
:10180A000130C702031D0A2C0B2CEE2B4508C3001E
:10181A004408C2000800831203132208A600210804
:10182A00A500260DA60CA50C260DA60CA50C2508B0
:10183A00A7002608A800270887002318252C292C8A
:10184A008312031307142C2C8312031307108A150F
:10185A00BB208A15831203132208A6002108A500BB
:10186A000310A50DA60D0310A50DA60D2508A900A8
:10187A002608AA00290887002318442C482C83121A
:10188A00031307144B2C8312031307108A15BB206A
:10189A008A150800831203133C08C0003B08BF00E6
:1018AA00400DC00CBF0C400DC00CBF0C3F08C1005E
:1018BA004008C200410887003D18642C682C831236
:1018CA00031307146B2C8312031307108A15DB20EA
:1018DA008A15831203133C08C0003B08BF0003109B
:1018EA00BF0DC00D0310BF0DC00D3F08C300400857
:1018FA00C400430887003D18832C872C83120313E6
:10190A0007148A2C8312031307108A15DB208A1501
:10191A00080083120313C001C1013A083B040319EA
:10192A00972C982CCF2CBF01BF0AA62C013003108C
:10193A00BA0DBB0DFF3E031D9C2C0130BE003E08B4
:10194A00BF07BB1FA92CAA2C9B2C01300310C00D6A
:10195A00C10DFF3E031DAB2C3B083D02031DB72CF6
:10196A003A083C02031CBA2CBB2CC22C3A08BC0213
:10197A003B08031CBD03BD02401401300310BB0C1D
:10198A00BA0CFF3E031DC32C0130BF02031DCE2C2F
:10199A00CF2CAA2C4108BB004008BA0008008A15BF
:1019AA00FB208A15831203133A08BC003B08BD00CA
:1019BA000030BD1BFF30BE00BF0001308A1544272E
:1019CA008A15831203133F0883160313A700831291
:1019DA0003133E0883160313A600831203133D085C
:1019EA0083160313A500831203133C0883160313FB
:1019FA00A4003E30A300FA30A2003E30A10090308D
:101A0A00A0008A113A208A15831603132308B80006
:101A1A002208B7002108B6002008B5008A150C264E
:101A2A008A15831603133608C1003508C000410819
:101A3A00BF004008BE0008008A15FB208A158312E1
:101A4A0003133A08BC003B08BD000030BD1BFF3041
:101A5A00BE00BF0001308A1544278A15831203137A
:101A6A003F0883160313A700831203133E08831645
:101A7A000313A600831203133D0883160313A5005C
:101A8A00831203133C0883160313A4003E30A300F9
:101A9A00FA30A2003E30A1009030A0008A113A200C
:101AAA008A15831603132308B8002208B7002108F1
:101ABA00B6002008B5008A150C268A15831603136A
:101ACA003608CC003508CB002430BE003E0883120D
:101ADA000313C800831603134C0883120313CA00A6
:101AEA00831603134B0883120313C900BF308A11EC
:101AFA007D258A15213083160313BE003E08831202
:101B0A000313BA00BF308A1513238A15BF300800A1
:101B1A0083120313AD00952D0130A8002808AD07E4
:101B2A002D08840020308313000603199D2D9E2D55
:101B3A00912D2D088400093000060319A52DA62D24
:101B4A00912DAB01AC01AA012D0884002D300006AD
:101B5A00031DB02DB12DBA2D0130A8002808AA07FF
:101B6A000130A8002808AD07EA2D2D0884002B3083
:101B7A000006031DC12DC22DEA2D0130A800280838
:101B8A00AD07EA2D831203132D0884002C08A10047
:101B9A002B08A0000A30A2000030A3008A156C228C
:101BAA008A1583130008831203132007A800003044
:101BBA00031801302107A9002808D03EAB002908E4
:101BCA000318013EFF3EAC00C22D2D088400000818
:101BDA008A152D218A150318F32DF42DC72D83128A
:101BEA0003132A080319FA2DFB2D072E2B09A80027
:101BFA002C09A900A80A0319A90A2808A600290875
:101C0A00A7000B2E2C08A7002B08A600080003101B
:101C1A0083160313370D380DB900390883120313DD
:101C2A00D0005008031D1A2E1B2E262E00308316B4
:101C3A000313B8000030B7000030B6000030B5001A
:101C4A009D2E831603133508B9003608BA003708E3
:101C5A00BB003808BC001F300310BC0CBB0CBA0C0C
:101C6A00B90CFF3E031D312E3908BD003D08831211
:101C7A000313CF0083160313B717FF30B505FF30E0
:101C8A00B605FF30B7050030B80596308312031346
:101C9A00D002D01F512E522E702E5008803A973EF5
:101CAA000318582E592E5A2E1B2E01300310831654
:101CBA000313B80CB70CB60CB50CFF3E031D5B2E14
:101CCA000130B900390883120313D007031D6E2EA1
:101CDA006F2E5A2E8B2E20305002031C752E762E14
:101CEA00862E1B2E013083160313B9000310B50D7F
:101CFA00B60DB70DB80DB90B7B2E01308312031345
:101D0A00D0025008031D8A2E8B2E772E4F080319F6
:101D1A008F2E902E9D2E83160313B509B609B70987
:101D2A00B809B50A0319B60A0319B70A0319B80A92
:101D3A000800013083120313BA000030BB008A1571
:101D4A00AE208A15413083160313D000EE30CF003F
:101D5A00CF0BAD2ED00BAD2E8A15D4248A1583163F
:101D6A0003133F08D7003E08D6000230831203133C
:101D7A00BA000030BB008A15AE208A15413083169E
:101D8A000313D000EE30CF00CF0BC92ED00BC92ED3
:101D9A008A15D4248A15831603133F08D9003E08EE
:101DAA00D80057085902031DDC2E5608580203189A
:101DBA00DF2EE02EFF2E58085602DA005908031CBF
:101DCA00590A5702DB001F30CF004F088312031352
:101DDA00C800831603135B0883120313CA00831611
:101DEA0003135A0883120313C900D1308A117D25BF
:101DFA008A151D2F56085802DA005708031C570A7D
:101E0A005902DB001F30CF004F0883120313C800AA
:101E1A00831603135B0883120313CA008316031382
:101E2A005A0883120313C900D1308A117D258A15F5
:101E3A00831603135B0883120313BB008316031371
:101E4A005A0883120313BA008A159F218A1583122E
:101E5A0003133A083B040319332F342F372F8A15FB
:101E6A0083218A15D13083160313CD000030CE00AA
:101E7A008A15EB208A158A11F5278A15080083121C
:101E8A000313C400440803194B2F4C2F602FBF1FA4
:101E9A004F2F502F602F3C09C6003D09C7003E094D
:101EAA00C8003F09C900C60A0319C70A0319C80AA4
:101EBA000319C90A682F3F08C9003E08C8003D082F
:101ECA00C7003C08C6003F083E043D043C04031D0D
:101EDA006F2F702F792F0030BF000030BE00003006
:101EEA00BD000030BC00FF2F9630C0004008C5007E
:101EFA008B2F0130C0004008C50701300310C90C00
:101F0A00C80CC70CC60CFF3E031D832FFE304905C3
:101F1A00031D902F912F7E2FAD2F0130C000400856
:101F2A00C5070130C607003003180130C707003063
:101F3A0003180130C807003003180130C9070130FF
:101F4A000310C90CC80CC70CC60CFF3E031DA52FF5
:101F5A00FF304905031DB22FB32F922FBF2F013037
:101F6A00C5020130C0000310C60DC70DC80DC90D4A
:101F7A00C00BB82FC81BC22FC32FC92F023045026E
:101F8A000318C82FC92FB42F4518CC2FCD2FD52F02
:101F9A00FF30C605FF30C7057F30C805FF30C905C9
:101FAA000310C50C4508C000C101C201C3011830A5
:101FBA000310C00DC10DC20DC30DFF3E031DDD2F61
:101FCA004008C6044108C7044208C8044308C904B3
:101FDA0044080319F12FF22FF72FBF1FF52FF62F01
:101FEA00F72FC9174908BF004808BE004708BD00B7
:061FFA004608BC000800CF
:00000001FF
