:020000040000FA
:100000008A110F2802280800FE00030E8312031332
:10001000B5000408B6000A08B7008A1579298A11C4
:1000200011288313E630FD000830FE00D430FF00B5
:10003000D63084008A15F9208A116630FD00083018
:10004000FE004430FF00623084008A15F9208A11D6
:1000500083160313E601E70183120313DD01DE01BA
:10006000DF01E001E10183018A15102B83120313E4
:100070004B088039D000500883160313A000831268
:1000800003134B08D0005007D10051088316031307
:10009000A60083120313CA1F4E284F285228831626
:1000A0000313261483160313260803195828592806
:1000B0006B28260A031D5D285E28682800308312FD
:1000C0000313CB000030CA000030C9000030C80064
:1000D0008312CA177528003083120313CB00003037
:1000E000CA000030C9000030C8004F088039D00075
:1000F000500883160313A006831203134F08D00081
:100100005007D100510883160313A1008312031373
:10011000CE1F8B288C288F28831603132114831657
:1001200003132108031995289628A828210A031DDE
:100130009A289B28A528003083120313CF00003093
:10014000CE000030CD000030CC008312CE17B22894
:10015000003083120313CF000030CE000030CD00FA
:100160000030CC008316031321080319B828B928DE
:10017000BE282608031DBD28BE28C92800308312CA
:100180000313CB000030CA000030C9000030C800A3
:10019000822D831203134808D0005008B8004E087F
:1001A0008A152D228A11831203133908831603132B
:1001B000AC0083120313380883160313AB002B081B
:1001C00083120313D000D101D201D3015308831647
:1001D0000313A50083120313520883160313A4000C
:1001E00083120313510883160313A300831203130E
:1001F000500883160313A2002C0883120313D000A7
:10020000D101D201D301530883160313AA0083122C
:100210000313520883160313A90083120313510812
:1002200083160313A80083120313500883160313C5
:10023000A700831203134908D0005008B8004D08E6
:100240008A152D228A11831203133908831603138A
:10025000AC0083120313380883160313AB002B087A
:1002600083120313D000D101D201D30150088316A9
:100270000313A20783120313510803110318013E4D
:100280000319452983160313A30783120313520886
:1002900003110318013E0319502983160313A40701
:1002A00083120313530803110318013E03195B293A
:1002B00083160313A50783120313831603132C0855
:1002C00083120313D000D101D201D3015008831649
:1002D0000313A70783120313510803110318013EE8
:1002E0000319752983160313A807831203135208F1
:1002F00003110318013E0319802983160313A9076C
:1003000083120313530803110318013E03198B29A9
:1003100083160313AA07831203138316031383128E
:1003200003134A08D0005008B8004C088A152D2243
:100330008A1183120313390883160313AC00831246
:100340000313380883160313AB002B08831203131F
:10035000D000D101D201D301500883160313A207A4
:1003600083120313510803110318013E0319BB291B
:1003700083160313A30783120313520803110318F0
:10038000013E0319C62983160313A407831203131E
:10039000530803110318013E0319D12983160313CF
:1003A000A50783120313831603132C088312031368
:1003B000D000D101D201D301500883160313A7073F
:1003C00083120313510803110318013E0319EB298B
:1003D00083160313A807831203135208031103188B
:1003E000013E0319F62983160313A9078312031389
:1003F000530803110318013E0319012A831603133E
:10040000AA078312031383160313083083120313FE
:10041000D000031083160313A20DA30DA40DA50D88
:1004200083120313D00B092A4908D0005008B800E2
:100430004C088A152D228A1183120313390883165A
:100440000313AC0083120313380883160313AB00A5
:100450002B0883120313D000831603132C08831276
:100460000313D100D201D301500883160313A2074E
:1004700083120313510803110318013E0319432A81
:1004800083160313A30783120313520803110318DF
:10049000013E03194E2A83160313A4078312031384
:1004A000530803110318013E0319592A8316031335
:1004B000A50783120313831603138312031348083B
:1004C000D0005008B8004D088A152D228A118312D9
:1004D0000313390883160313AC008312031338087F
:1004E00083160313AB002B0883120313D00083166B
:1004F00003132C0883120313D100D201D301500837
:1005000083160313A2078312031351080311031860
:10051000013E03198E2A83160313A30783120313C4
:10052000520803110318013E0319992A8316031375
:10053000A40783120313530803110318013E031980
:10054000A42A83160313A507831203138316031328
:10055000083083120313D000031083160313A20D77
:10056000A30DA40DA50D83120313D00BAC2A4808CC
:10057000D0005008B8004C088A152D228A11831229
:100580000313390883160313AC00831203133808CE
:1005900083160313AB002B0883120313D0008316BA
:1005A00003132C0883120313D100D201D301500886
:1005B00083160313A20783120313510803110318B0
:1005C000013E0319E62A83160313A30783120313BC
:1005D000520803110318013E0319F12A831603136D
:1005E000A40783120313530803110318013E0319D0
:1005F000FC2A83160313A507831203138316031320
:10060000831203134908D0005008B8004E088A1519
:100610002D228A1183120313390883160313AC00A9
:1006200083120313380883160313AB002B088312BD
:100630000313D000831603132C0883120313D10075
:10064000D201D301500883160313A70783120313A3
:10065000510803110318013E0319312B83160313AC
:10066000A80783120313520803110318013E03194C
:100670003C2B83160313A90783120313530803119A
:100680000318013E0319472B83160313AA0783128D
:10069000031383160313831203134A08D000500870
:1006A000B8004D088A152D228A11831203133908C8
:1006B00083160313AC008312031338088316031345
:1006C000AB002B0883120313D000831603132C08EE
:1006D00083120313D100D201D301500883160313F0
:1006E000A70783120313510803110318013E0319CE
:1006F0007C2B83160313A8078312031352080311DC
:100700000318013E0319872B83160313A9078312CD
:100710000313530803110318013E0319922B831688
:100720000313AA07831203138316031383120313FD
:100730004A08D0005008B8004E088A152D228A11A8
:1007400083120313390883160313AC0083120313B7
:10075000380883160313AB002B0883120313D00051
:10076000831603132C0883120313D100D201D30183
:1007700008300310D00DD10DD20DD30DFF3E031D57
:10078000B92B500883160313A707831203135108CC
:1007900003110318013E0319D02B83160313A80776
:1007A00083120313520803110318013E0319DB2BB4
:1007B00083160313A90783120313530803110318A5
:1007C000013E0319E62B83160313AA0783120313B2
:1007D00083160313220883120313D0008316031316
:1007E000230883120313D1008316031324088312F2
:1007F0000313D20083160313250883120313D300B7
:1008000018300310D30CD20CD10CD00CFF3E031DBA
:10081000012C500883160313A707831203135108F2
:1008200003110318013E0319182C83160313A8079C
:1008300083120313520803110318013E0319232CDA
:1008400083160313A9078312031353080311031814
:10085000013E03192E2C83160313AA0783120313D8
:1008600083160313083083120313D000031083167A
:100870000313A20DA30DA40DA50D83120313D00B1A
:10088000362C831603132608210783120313D00086
:10089000D101D10D5008823E83160313AB008312A1
:1008A000031351080318013EFF3E83160313AC00E7
:1008B000862C013083120313D00003108316031318
:1008C000A70DA80DA90DAA0D83120313D00B5D2C43
:1008D00083160313A51F6D2C6E2C6F2C271401306B
:1008E00083120313D000031083160313A20DA30D6C
:1008F000A40DA50D83120313D00B732CFF308316A8
:100900000313AB070318AC0AFF30AC07A91F892CEF
:100910008A2C592CA101A51F8E2C8F2CBD2CFF30A9
:10092000220583120313D000FF308316031323051F
:1009300083120313D100FF3083160313240583129F
:100940000313D2007F30831603132505831203138C
:10095000D30053085204510450040319B02CB12C95
:10096000B62C83160313A101A10ABD2C8316031311
:10097000271CBB2CBC2CBD2CB12C21080319C12C6D
:10098000C22C0F2D0130A707003003180130A80733
:10099000003003180130A907003003180130AA07FE
:1009A0002A1CD32CD42C0F2D270883120313D0001C
:1009B00083160313280883120313D100831603132D
:1009C000290883120313D200831603132A08831203
:1009D0000313D3000130D400530DD30CD20CD10C2F
:1009E000D00CD40BEC2C530883160313AA008312EB
:1009F0000313520883160313A9008312031351082B
:100A000083160313A80083120313500883160313DD
:100A1000A7000130AB070318AC0A0030AC072C0864
:100A2000803AFF0080307F02031D182DFF302B021B
:100A3000031C1B2D1C2D272D7F3083160313AA00AA
:100A40008030A9000030A8000030A700642D831674
:100A500003132C08803AFF0080307F02031D322DE3
:100A600001302B020318352D362D422D0030831610
:100A70000313AA000030A9000030A8000030A7002E
:100A8000A001642D831603132B0883120313D000D7
:100A9000500883160313A600FF30A705FF30A805F2
:100AA0007F30A9050030AA05261C572D582D592D39
:100AB000A917260883120313D0000310500CD1008D
:100AC000510883160313AA00200883120313D000D1
:100AD000500883160313AA042A0883120313CB00B9
:100AE00083160313290883120313CA008316031302
:100AF000280883120313C9008316031327088312DF
:100B00000313C8000800362F640865040319892DF3
:100B10008A2D722F8A1594208A11003083120313B4
:100B20005E02033003195D020318972D982D722F72
:100B30003730B0005D085F3E8400300883138000CA
:100B40005E08AC005D08AB0037308A15BC218A1105
:100B5000013083120313DD070318DE0A0030DE07BD
:100B6000722F640865040319B62DB72D722F8A15EC
:100B700094208A110030831203135E02033003199C
:100B80005D020318C42DC52D722F3830B0005D08EA
:100B90005F3E84003008831380005E08AC005D086F
:100BA000AB0038308A15BC218A11A82D6408650471
:100BB0000319DB2DDC2D722F8A1594208A11003049
:100BC000831203135E02033003195D020318E92D3B
:100BD000EA2D722F3930B0005D085F3E8400300886
:100BE000831380005E08AC005D08AB0039308A15C5
:100BF000BC218A11A82D640865040319002E012E5A
:100C0000722F8A1594208A110030831203135E021A
:100C1000033003195D0203180E2E0F2E722F34308D
:100C2000B0005D085F3E84003008831380005E08DA
:100C3000AC005D08AB0034308A15BC218A11A82DA8
:100C4000640865040319252E262E722F8A15942018
:100C50008A110030831203135E02033003195D0210
:100C60000318332E342E722F3530B0005D085F3EEE
:100C700084003008831380005E08AC005D08AB0080
:100C800035308A15BC218A11A82D64086504031922
:100C90004A2E4B2E722F8A1594208A11003083120F
:100CA00003135E02033003195D020318582E592EF8
:100CB000722F3630B0005D085F3E84003008831329
:100CC00080005E08AC005D08AB0036308A15BC21A0
:100CD0008A11A82D013083160313E6000030E700C7
:100CE000722F640865040319762E772E722F8A15E9
:100CF00094208A110030831203135E02033003191B
:100D00005D020318842E852E722F3130B0005D08ED
:100D10005F3E84003008831380005E08AC005D08ED
:100D2000AB0031308A15BC218A11A82D64086504F6
:100D300003199B2E9C2E722F8A1594208A11003045
:100D4000831203135E02033003195D020318A92EF8
:100D5000AA2E722F3230B0005D085F3E840030084A
:100D6000831380005E08AC005D08AB0032308A154A
:100D7000BC218A11A82D640865040319C02EC12E58
:100D8000722F8A1594208A110030831203135E0299
:100D9000033003195D020318CE2ECF2E722F33308D
:100DA000B0005D085F3E84003008831380005E0859
:100DB000AC005D08AB0033308A15BC218A11A82D28
:100DC00083160313E601E701013083120313A00029
:100DD0000030A1008A156A208A11722F6408650408
:100DE0000319F32EF42E722F8A1594208A110030E5
:100DF000831203135E02033003195D020318012FEF
:100E0000022F722F3030B0005D085F3E8400300842
:100E1000831380005E08AC005D08AB0030308A159B
:100E2000BC218A11A82D5F308A1173278A11831281
:100E30000313270883160313E50083120313260800
:100E400083160313E40083120313E401E501722FF8
:100E500083160313E601E701023083120313A00097
:100E60000030A1008A156A208A11722F83120313A1
:100E70000608B000B1013108003A0319402F722F63
:100E80003008773A0319282F0C3A0319E02E063A56
:100E900003196A2E033A0319722FC93A0319132F43
:100EA0000C3A0319BB2E063A0319452E033A0319CF
:100EB000D62D693A0319EE2E0C3A0319962E063AEE
:100EC0000319202E033A0319B12D393A0319722F51
:100ED0000C3A0319712E063A0319FB2D033A031934
:100EE000842D722F080083120313AD007B2F013075
:100EF000A8002808AD072D088400203083130006C1
:100F00000319832F842F772F2D08840009300006C2
:100F100003198B2F8C2F772FAB01AC01AA012D0861
:100F200084002D300006031D962F972FA02F01302F
:100F3000A8002808AA070130A8002808AD07D02F6C
:100F40002D0884002B300006031DA72FA82FD02FBB
:100F50000130A8002808AD07D02F831203132D08F5
:100F600084002C08A1002B08A0000A30A200003049
:100F7000A3008A1506228A11831300088312031323
:100F80002007A8000030031801302107A900280815
:100F9000D03EAB0029080318013EFF3EAC00A82F4D
:100FA0002D08840000088A1506218A110318D92FFC
:100FB000DA2FAD2F831203132A080319E02FE12F34
:100FC000ED2F2B09A8002C09A900A80A0319A90ACA
:100FD0002808A6002908A700F12F2C08A7002B0835
:100FE000A6000800013083120313B9000030BA00D4
:0E0FF0000030BB00BC008A15C3238A11080024
:10100000FF1B0A2883137F1883170008840A03191B
:10101000FF0A080008308A000408840A82070034A6
:10102000013400340A34003464340034E8340334C6
:101030001034273449346E34673472346534733471
:1010400065342034743465346D34703420344D3458
:101050004134583449344D34413400342734433416
:0810600000342534643400342F
:10108800013400340134003407308316031381001F
:10109800F03086008B158B170B140800FE30831276
:1010A80003138600FD308600FB308600F73086008B
:1010B8000800013083120313A1000030A2000030A1
:1010C800A300A4008A1584238A150800023083121D
:1010D800031320062104031D7228732875289F1501
:1010E80076289F110800023083120313380639044A
:1010F800031D7F28802882289F1583289F110800B8
:10110800831203138714C73083120313A0008C289B
:10111800A00B8B288F280000831203138710080068
:101128008312031362036304031D9B289C28A328CE
:101138008A155D208A1583120313E201E301080072
:10114800831203138714C73083120313B800AC2823
:10115800B80BAB28AF2800008312031387100800D0
:1011680083160313400883120313C800831603135E
:10117800410883120313C9008A15DD228A15080065
:10118800831203131F151F19CA28CB28C7281E0846
:10119800B900831603131E0883120313B80008004E
:1011A800503445344C344934473452344F34203465
:1011B80000340034003400340134003496340034F0
:1011C80083160313870183120313981718128316C3
:1011D80003139816181218150C168C12193099004A
:1011E80008007E088A007F0882008A15F5208A1583
:1011F8008000840A04087D0603190034FF0A0319D5
:10120800FE0AF92883120313A100A0013A30210233
:1012180003180F291029182930302102031C152919
:1012280016291829A001A00A200C080003308312EF
:101238000313A1000030A2000330870007108A15AD
:1012480084208A15383083120313870007108A1503
:1012580084208A150800033083120313B900003074
:10126800BA000330870007108A15A4208A15383081
:1012780083120313870007108A15A4208A15080013
:1012880080308316031387000130850080309F006B
:101298000130831203139F001F170830B900003074
:1012A800BA000030BB00BC008A15C3238A150800A9
:1012B800831203133908831603136502031D6A2971
:1012C800831203133808831603136402031C6D2961
:1012D8006F2901307029003083120313BA00BB0153
:1012E8003A08B8003B08B90008000B1C7C297D2986
:1012F8008F298A1183258A15023083120313B400BB
:101308000430B300BA30B200B20B8829B30B882975
:10131800B40B88290B108312031337088A00360888
:101328008400350E8300FE0E7E0E0900831203131F
:101338003808BA003908BB00A7290130BA070318D2
:10134800BB0A0030BB073B08FF003A0884008A1537
:1013580000208A15003A031DB229B329A1293808AB
:101368003A02B8003908031C390A3B02B9000800E0
:1013780083120313AF002B08803EA1002C0803182A
:10138800013E003EA2000030A300A4008A15842379
:101398008A15831203132F08AD00AE012D08A10092
:1013A8002E08A2000130A3000030A4008A1584236F
:1013B8008A158A151A218A15080083120313C70093
:1013C8004308803EB90044080318013E003EBA00B5
:1013D8000030BB00BC008A15C3238A15831203138F
:1013E8004708C500C6014508B9004608BA000130DB
:1013F800BB000030BC008A15C3238A158A152F212B
:101408008A15080083120313A401A501201C0D2AC4
:101418000E2A142A2208A4070318A50A2308A507D8
:1014280001300310A20DA30DFF3E031D152A013044
:101438000310A10CA00CFF3E031D1C2A2008210448
:10144800031D272A282A0A2A2508A1002408A00003
:10145800080083120313C000BC01BD013808BA009C
:10146800BB013A08BE003B08BF00401C3C2A3D2A8D
:10147800432A3E08BC070318BD0A3F08BD070130D0
:101488000310BE0DBF0DFF3E031D442A0310C00C00
:101498004008031D502A512A392A3D08B9003C0842
:1014A800B800080083120313BF00BD01BE016E2AF5
:1014B8000C1E5F2A602A5C2A3D083F07BC003C08D6
:1014C80084008313000899000130BD070318BE0A81
:1014D8000030BE073F08B8000030B9008A159A21CD
:1014E8008A158312031339083E02031D7D2A380822
:1014F8003D02031C802A812A5C2A080083120313F8
:10150800BA003A08B9003908BB008E2A0130B90080
:101518003908BB073B08840083130008031D952A7C
:10152800962A8A2A9F2A0130B9003908BB07013058
:10153800B9003908B807380884008A150A208A15BE
:10154800B9003B088400390880000008031DAD2A53
:10155800AE2A972A08000B3083160313C000803088
:10156800C1008A15B4208A150B3083160313C000F6
:101578008030C1008A15B4208A15C52A8A155220E0
:101588008A1583120313640365040319CC2ACD2A30
:10159800C22A0030831603136502973003196402C8
:1015A800031CD72AD82ADC2A9630E4000030E5004C
:1015B800080083120313CA01CB01FC2A4B08C4009C
:1015C8004A08C3004A08480784004B0803184B0A16
:1015D8004907FF008A1500208A158A15E1218A1516
:1015E800013083120313CA070318CB0A0030CB0754
:1015F8004808B8004908B9008A159A218A15831243
:10160800031339084B02031D0B2B38084A02031C2D
:101618000E2B0F2BE22A08008A1544218A158A15F9
:1016280048208A158A15E4208A1501308316031389
:10163800D4000030D5003B2B620863040319252B26
:10164800262B2E2B8A15AF228A1583160313E20147
:10165800E3013B2B660867040319332B342B382B23
:101668008A153A258A153B2B8A158D248A158316E7
:10167800031354085504031D422B432B202B8A11B6
:1016880002208A158A110F28831203134008410487
:1016980003194F2B502B7F2BC501C50A5E2B013038
:1016A8000310C00DC10DFF3E031D542B0130C400B3
:1016B8004408C507C11F612B622B532B4108430205
:1016C800031D682B40084202031C6B2B6C2B722BEA
:1016D8004008C2024108031CC303C30201300310BF
:1016E800C10CC00CFF3E031D732B0130C502031D46
:1016F8007E2B7F2B622B4308C1004208C0000800E4
:10170800831203132208A6002108A500260DA60CA3
:10171800A50C260DA60CA50C2508A7002608A800D0
:10172800270887002318992B9D2B8312031307146E
:10173800A02B8312031307108A1584208A1583129D
:1017480003132208A6002108A5000310A50DA60D65
:101758000310A50DA60D2508A9002608AA0029082A
:1017680087002318B82BBC2B831203130714BF2B35
:101778008312031307108A1584208A150800831220
:1017880003133A08BE003908BD003E0DBE0CBD0C5F
:101798003E0DBE0CBD0C3D08BF003E08C0003F0812
:1017A80087003B18D82BDC2B831203130714DF2B7D
:1017B8008312031307108A15A4208A1583120313B2
:1017C8003A08BE003908BD000310BD0DBE0D031058
:1017D800BD0DBE0D3D08C1003E08C200410887008E
:1017E8003B18F72BFB2B831203130714FE2B8312D2
:1017F800031307108A15A4208A1508008A15C42027
:101808008A15831203133808BA003908BB00003060
:10181800BB1BFF30BC00BD0001308A156A268A1543
:10182800831203133D08CF003C08CE003B08CD00CF
:101838003A08CC003E30CB00FA30CA003E30C9002E
:101848009030C8008A1136208A15831203134B087A
:10185800D8004A08D7004908D6004808D5008A1594
:10186800CE258A15831203135608DC005508DB00C1
:101878005C0883160313B300831203135B088316F3
:101888000313B200080083120313BD01BE01380818
:1018980039040319502C512C882CBF01BF0A5F2C26
:1018A80001300310B80DB90DFF3E031D552C013052
:1018B800BC003C08BF07B91F622C632C542C0130B4
:1018C8000310BD0DBE0DFF3E031D642C39083B02FD
:1018D800031D702C38083A02031C732C742C7B2CC3
:1018E8003808BA023908031CBB03BB023D14013097
:1018F8000310B90CB80CFF3E031D7C2C0130BF024D
:10190800031D872C882C632C3E08B9003D08B800BD
:1019180008008A1502248A15831603133308D30096
:101928003208D200530883120313B9008316031335
:10193800520883120313B8008A155C218A15831292
:101948000313380839040319AA2CAB2CC62CC6304B
:101958008400D63083160313C2000408C3000C3079
:10196800C4004208840083130008C500C20A430863
:10197800840045088000C30AC40BB52CC6308A15FC
:1019880056228A158A15D8248A1583160313C2008D
:10199800C3014208C0004308C1008A15B4208A1553
:1019A8008A1552208A1508008A15C4208A158312C0
:1019B80003133808BA003908BB000030BB1BFF30DE
:1019C800BC00BD0001308A156A268A1583120313EC
:1019D8003D08CF003C08CE003B08CD003A08CC00BB
:1019E8003E30CB00FA30CA003E30C9009030C80003
:1019F8008A1136208A15831203134B08D8004A0827
:101A0800D7004908D6004808D5008A15CE258A157A
:101A180083120313560883160313BF00831203139C
:101A2800550883160313BE00223083120313DB000C
:101A38005B08C600831603133F0883120313C8000C
:101A4800831603133E0883120313C700B2308A15A6
:101A580026278A151F3083120313DB005B08B800A2
:101A6800B2308A1582228A15B230080001308312FA
:101A78000313B8000030B9008A1577208A150230A0
:101A880083160313C4000430C300BA30C200C20B6B
:101A98004B2DC30B4B2DC40B4B2D8A1502248A15D5
:101AA800831603133308CB003208CA0002308312AE
:101AB8000313B8000030B9008A1577208A15023060
:101AC80083160313C4000430C300BA30C200C20B2B
:101AD8006B2DC30B6B2DC40B6B2D8A1502248A1535
:101AE800831603133308CD003208CC004D08803A22
:101AF800C2004B08803A4202031D842D4A084C025A
:101B08000318872D882DA52D223083160313C200B4
:101B1800420883120313C600831603134C084A02B3
:101B280083120313C700831603134D08031C4D0AC1
:101B38004B0283120313C800C5308A1526278A155D
:101B4800C12D223083160313C200420883120313E7
:101B5800C600831603134A084C0283120313C700F6
:101B6800831603134B08031C4B0A4D0283120313FD
:101B7800C800C5308A1526278A158A11F2278A15C2
:101B8800C53083160313C0000030C1008A15B42085
:101B98008A150800031083120313570D580D831676
:101BA8000313AD002D0883120313DA005A08031D2E
:101BB800DE2DDF2DE82D0030D8000030D7000030B2
:101BC800D6000030D500692E550883160313AD00E2
:101BD80083120313560883160313AE0083120313EC
:101BE800570883160313AF0083120313580883168C
:101BF8000313B0001F300310B00CAF0CAE0CAD0CCB
:101C0800FF3E031DFF2D2D08B10031088312031379
:101C1800D900D717FF30D505FF30D605FF30D705D7
:101C28000030D8059630DA02DA1F1B2E1C2E3A2E09
:101C38005A08803A973E0318222E232E242EDF2D91
:101C480001300310D80CD70CD60CD50CFF3E031D61
:101C5800252E013083160313AD002D0883120313BC
:101C6800DA07031D382E392E242E592E20305A0219
:101C7800031C3F2E402E542EDF2D013083160313F4
:101C8800AD00031083120313D50DD60DD70DD80D53
:101C980083160313AD0B452E013083120313DA02AA
:101CA8005A08031D582E592E412E590803195D2E26
:101CB8005E2E692ED509D609D709D809D50A031980
:101CC800D60A0319D70A0319D80A0800831203137E
:101CD800C20042080319712E722E862EBD1F752E62
:101CE800762E862E3A09C4003B09C5003C09C60079
:101CF8003D09C700C40A0319C50A0319C60A03190E
:101D0800C70A8E2E3D08C7003C08C6003B08C50020
:101D18003A08C4003D083C043B043A04031D952ED0
:101D2800962E9F2E0030BD000030BC000030BB0056
:101D38000030BA00252F9630BE003E08C300B12EF1
:101D48000130BE003E08C30701300310C70CC60CA3
:101D5800C50CC40CFF3E031DA92EFE304705031D0C
:101D6800B62EB72EA42ED32E0130BE003E08C307D0
:101D78000130C407003003180130C50700300318CC
:101D88000130C607003003180130C70701300310BF
:101D9800C70CC60CC50CC40CFF3E031DCB2EFF3070
:101DA8004705031DD82ED92EB82EE52E0130C302C3
:101DB8000130BE000310C40DC50DC60DC70DBE0B06
:101DC800DE2EC61BE82EE92EEF2E02304302031842
:101DD800EE2EEF2EDA2E4318F22EF32EFB2EFF30C6
:101DE800C405FF30C5057F30C605FF30C7050310A1
:101DF800C30C4308BE00BF01C001C1011830031065
:101E0800BE0DBF0DC00DC10DFF3E031D032F3E08C3
:101E1800C4043F08C5044008C6044108C704420872
:101E28000319172F182F1D2FBD1F1B2F1C2F1D2FF8
:101E3800C7174708BD004608BC004508BB00440852
:101E4800BA00080083120313D1004730C9004908BB
:101E5800CC00EB2F253052060319332F342F402F97
:101E68005208C900510884004908831380000130D2
:101E7800C9004908D107EB2FCD010130C607FF3053
:101E8800460784008A150A208A15D200C900CA01AB
:101E98004A08003A0319512FEB2F4908003A031951
:101EA800FB2F643A03195C2F0D3A03195C2FEB2FB3
:101EB8004C08840083130008CF00840A0008D0006F
:101EC8000230C9004908CC07D01F6B2F6C2F752F23
:101ED8000330C9004908CD04CF09D009CF0A031936
:101EE800D00AD201D20A5208C9004907013E84002B
:101EF8008A150A208A15CA008A150A208A15CB0075
:101F08004B085002031D8A2F4A084F0203188D2FD1
:101F18008E2F8F2F992F0130C9004908D20705301D
:101F28005206031D982F992F772F4D08033903194F
:101F38009E2F9F2FAA2F2D30C900510884004908D1
:101F4800831380000130C9004908D1075208C9002D
:101F58004908CE00E22F0A30C0000030C1004E0808
:101F6800C9004907013E84008A150A208A15B8006D
:101F78008A150A208A15B9005008BB004F08BA0014
:101F88008A1547248A15831203133908C3003808B1
:101F9800C2008A1548238A15831203134008303E6D
:101FA800CA004A08D2005208C900510884004908EA
:101FB800831380000130C9004908D107FF30C900E8
:101FC8004908CE074E0A031DEA2FEB2FAF2F013029
:101FD800C607FF30460784008A150A208A15C900FB
:101FE8004908D2005208031DFA2FFB2F2E2F510843
:081FF80084008313800108003E
:00000001FF
