:020000040000FA
:100000008A11112896340034FE00030E8312031364
:10001000B5000408B6000A08B7007F08B8008A15C2
:10002000B62A8A111328831603138A1102208A1113
:10003000CA008A1103208A11CB00831203138A1588
:10004000CE218A11D9008A15CF218A11DA008A15AA
:10005000D0218A11DB008A15D1218A11DC008A1592
:10006000D2218A11DD008A15D3218A11DE00DF0139
:10007000E001E101E201E30183018A15A02B831273
:1000800003134C088039D100510883160313A000D4
:10009000831203134C08D1005107D2005208831673
:1000A0000313A60083120313CB1F572858285B287D
:1000B00083160313261483160313260803196128D5
:1000C00062287428260A031D6628672871280030D4
:1000D00083120313CC000030CB000030CA00003084
:1000E000C9008312CB177E28003083120313CC0083
:1000F0000030CB000030CA000030C9005008803901
:10010000D100510883160313A0068312031350086D
:10011000D1005107D200520883160313A1008312A5
:100120000313CF1F942895289828831603132114AE
:1001300083160313210803199E289F28B128210A3A
:10014000031DA328A428AE28003083120313D00077
:100150000030CF000030CE000030CD008312CF172A
:10016000BB28003083120313D0000030CF000030D2
:10017000CE000030CD008316031321080319C128D7
:10018000C228C7282608031DC628C728D228003041
:1001900083120313CC000030CB000030CA000030C3
:1001A000C9008B2D831203134908D1005108B900EF
:1001B0004F088A154A238A11831203133A088316BB
:1001C0000313AC0083120313390883160313AB0027
:1001D0002B0883120313D100D201D301D401540898
:1001E00083160313A5008312031353088316031306
:1001F000A40083120313520883160313A30083126F
:100200000313510883160313A2002C08831203134F
:10021000D100D201D301D401540883160313AA00DC
:1002200083120313530883160313A90083120313C5
:10023000520883160313A800831203135108831670
:100240000313A700831203134A08D1005108B90011
:100250004E088A154A238A11831203133A0883161B
:100260000313AC0083120313390883160313AB0086
:100270002B0883120313D100D201D301D4015108FA
:1002800083160313A20783120313520803110318E2
:10029000013E03194E2983160313A3078312031388
:1002A000530803110318013E031959298316031338
:1002B000A40783120313540803110318013E031902
:1002C000642983160313A5078312031383160313EC
:1002D0002C0883120313D100D201D301D401510899
:1002E00083160313A707831203135208031103187D
:1002F000013E03197E2983160313A80783120313F3
:10030000530803110318013E0319892983160313A7
:10031000A90783120313540803110318013E03199C
:10032000942983160313AA07831203138316031356
:10033000831203134B08D1005108B9004D088A15E8
:100340004A238A11831203133A0883160313AC005D
:1003500083120313390883160313AB002B0883128F
:100360000313D100D201D301D40151088316031322
:10037000A20783120313520803110318013E031945
:10038000C42983160313A30783120313530803110D
:100390000318013E0319CF2983160313A407831200
:1003A0000313540803110318013E0319DA298316B5
:1003B0000313A50783120313831603132C08831258
:1003C0000313D100D201D301D401510883160313C2
:1003D000A70783120313520803110318013E0319E0
:1003E000F42983160313A807831203135308031178
:1003F0000318013E0319FF2983160313A90783126B
:100400000313540803110318013E03190A2A831623
:100410000313AA07831203138316031308308312EE
:100420000313D100031083160313A20DA30DA40D13
:10043000A50D83120313D10B122A4A08D1005108CB
:10044000B9004D088A154A238A11831203133A080A
:1004500083160313AC0083120313390883160313A6
:10046000AB002B0883120313D100831603132C084F
:1004700083120313D200D301D4015108831603134E
:10048000A20783120313520803110318013E031934
:100490004C2A83160313A307831203135308031173
:1004A0000318013E0319572A83160313A407831266
:1004B0000313540803110318013E0319622A83161B
:1004C0000313A50783120313831603138312031365
:1004D0004908D1005108B9004E088A154A238A11EB
:1004E000831203133A0883160313AC008312031319
:1004F000390883160313AB002B0883120313D100B2
:10050000831603132C0883120313D200D301D401E2
:10051000510883160313A207831203135208031111
:100520000318013E0319972A83160313A3078312A6
:100530000313530803110318013E0319A22A83165B
:100540000313A40783120313540803110318013E75
:100550000319AD2A83160313A50783120313831609
:100560000313083083120313D100031083160313FF
:10057000A20DA30DA40DA50D83120313D10BB52A53
:100580004908D1005108B9004D088A154A238A113B
:10059000831203133A0883160313AC008312031368
:1005A000390883160313AB002B0883120313D10001
:1005B000831603132C0883120313D200D301D40132
:1005C000510883160313A207831203135208031161
:1005D0000318013E0319EF2A83160313A30783129E
:1005E0000313530803110318013E0319FA2A831653
:1005F0000313A40783120313540803110318013EC5
:100600000319052B83160313A507831203138316FF
:100610000313831203134A08D1005108B9004F088D
:100620008A154A238A11831203133A088316031387
:10063000AC0083120313390883160313AB002B0895
:1006400083120313D100831603132C0883120313A0
:10065000D200D301D401510883160313A7078312D4
:100660000313520803110318013E03193A2B831692
:100670000313A80783120313530803110318013E41
:100680000319452B83160313A90783120313540878
:1006900003110318013E0319502B83160313AA07F5
:1006A0008312031383160313831203134B08D10021
:1006B0005108B9004E088A154A238A118312031380
:1006C0003A0883160313AC00831203133908831608
:1006D0000313AB002B0883120313D10083160313FB
:1006E0002C0883120313D200D301D40151088316BE
:1006F0000313A70783120313520803110318013EC3
:100700000319852B83160313A807831203135308B9
:1007100003110318013E0319902B83160313A90735
:1007200083120313540803110318013E03199B2B72
:1007300083160313AA07831203138316031383126A
:1007400003134B08D1005108B9004F088A154A23FA
:100750008A11831203133A0883160313AC00831221
:100760000313390883160313AB002B0883120313FA
:10077000D100831603132C0883120313D200D30174
:10078000D40108300310D10DD20DD30DD40DFF3E8E
:10079000031DC22B510883160313A70783120313EB
:1007A000520803110318013E0319D92B83160313B2
:1007B000A80783120313530803110318013E0319FA
:1007C000E42B83160313A9078312031354080311A0
:1007D0000318013E0319EF2B83160313AA07831294
:1007E000031383160313220883120313D100831605
:1007F0000313230883120313D20083160313240860
:1008000083120313D30083160313250883120313E3
:10081000D40018300310D40CD30CD20CD10CFF3EF2
:10082000031D0A2C510883160313A7078312031311
:10083000520803110318013E0319212C83160313D8
:10084000A80783120313530803110318013E031969
:100850002C2C83160313A9078312031354080311C6
:100860000318013E0319372C83160313AA078312BA
:10087000031383160313083083120313D1000310EC
:1008800083160313A20DA30DA40DA50D831203134C
:10089000D10B3F2C83160313260821078312031361
:1008A000D100D201D20D5108823E83160313AB0052
:1008B0008312031352080318013EFF3E83160313ED
:1008C000AC008F2C013083120313D1000310831668
:1008D0000313A70DA80DA90DAA0D83120313D10BA5
:1008E000662C83160313A51F762C772C782C2714DF
:1008F000013083120313D100031083160313A20DDA
:10090000A30DA40DA50D83120313D10B7C2CFF3076
:1009100083160313AB070318AC0AFF30AC07A91FFB
:10092000922C932C622CA101A51F972C982CC62CDD
:10093000FF30220583120313D100FF308316031307
:10094000230583120313D200FF30831603132405FB
:1009500083120313D3007F308316031325058312FC
:100960000313D40054085304520451040319B92C3E
:10097000BA2CBF2C83160313A101A10AC62C83161F
:100980000313271CC42CC52CC62CBA2C2108031910
:10099000CA2CCB2C182D0130A707003003180130CA
:1009A000A807003003180130A907003003180130F0
:1009B000AA072A1CDC2CDD2C182D27088312031310
:1009C000D10083160313280883120313D200831661
:1009D0000313290883120313D300831603132A0871
:1009E00083120313D4000130D500540DD40CD30C62
:1009F000D20CD10CD50BF52C540883160313AA0086
:100A000083120313530883160313A90083120313DD
:100A1000520883160313A800831203135108831688
:100A20000313A7000130AB070318AC0A0030AC0772
:100A30002C08803AFF0080307F02031D212DFF30FB
:100A40002B02031C242D252D302D7F3083160313FC
:100A5000AA008030A9000030A8000030A7006D2D4A
:100A6000831603132C08803AFF0080307F02031D99
:100A70003B2D01302B0203183E2D3F2D4B2D003016
:100A800083160313AA000030A9000030A80000302C
:100A9000A700A0016D2D831603132B0883120313E7
:100AA000D100510883160313A600FF30A705FF30BD
:100AB000A8057F30A9050030AA05261C602D612DF0
:100AC000622DA917260883120313D1000310510CBD
:100AD000D200520883160313AA00200883120313BE
:100AE000D100510883160313AA042A0883120313A2
:100AF000CC0083160313290883120313CB0083163B
:100B00000313280883120313CA008316031327084C
:100B100083120313C9000800682F5D085E040319DF
:100B2000922D932DA42F8A1513228A118312031359
:100B30006008803AFF0080307F02031DA12D033042
:100B40005F020318A42DA52DA42F373083120313A1
:100B5000B0005F08613E84003008831380006008A5
:100B6000AC005F08AB0037308A15D9228A110130FA
:100B700083120313DF070318E00A0030E007A42FF5
:100B80005D085E040319C52DC62DA42F8A151322F6
:100B90008A11831203136008803AFF0080307F02BD
:100BA000031DD42D03305F020318D72DD82DA42F99
:100BB000383083120313B0005F08613E84003008B0
:100BC000831380006008AC005F08AB0038308A15E2
:100BD000D9228A11B72D5D085E040319F02DF12D7D
:100BE000A42F8A1513228A11831203136008803AF6
:100BF000FF0080307F02031DFF2D03305F020318CA
:100C0000022E032EA42F393083120313B0005F0885
:100C1000613E84003008831380006008AC005F08E8
:100C2000AB0039308A15D9228A11B72D5D085E04D0
:100C300003191B2E1C2EA42F8A1513228A1183122E
:100C400003136008803AFF0080307F02031D2A2EC4
:100C500003305F0203182D2E2E2EA42F3430831262
:100C60000313B0005F08613E8400300883138000E6
:100C70006008AC005F08AB0034308A15D9228A11B5
:100C8000B72D5D085E040319462E472EA42F8A1542
:100C900013228A11831203136008803AFF00803008
:100CA0007F02031D552E03305F020318582E592E64
:100CB000A42F353083120313B0005F08613E840017
:100CC0003008831380006008AC005F08AB0035304B
:100CD0008A15D9228A11B72D5D085E040319712E79
:100CE000722EA42F8A1513228A118312031360080F
:100CF000803AFF0080307F02031D802E03305F02A8
:100D00000318832E842EA42F363083120313B000D1
:100D10005F08613E84003008831380006008AC00E7
:100D20005F08AB0036308A15D9228A11B72D5D08CD
:100D30005E0403199C2E9D2EA42F8A1513228A115E
:100D4000831203136008803AFF0080307F02031D86
:100D5000AB2E03305F020318AE2EAF2EA42F31301E
:100D600083120313B0005F08613E840030088313D0
:100D700080006008AC005F08AB0031308A15D922D2
:100D80008A11B72D5D085E040319C72EC82EA42F43
:100D90008A1513228A11831203136008803AFF0018
:100DA00080307F02031DD62E03305F020318D92E38
:100DB000DA2EA42F323083120313B0005F08613E95
:100DC00084003008831380006008AC005F08AB002B
:100DD00032308A15D9228A11B72D5D085E040319B5
:100DE000F22EF32EA42F8A1513228A1183120313D5
:100DF0006008803AFF0080307F02031D012F03301E
:100E00005F020318042F052FA42F3330831203131E
:100E1000B0005F08613E84003008831380006008E2
:100E2000AC005F08AB0033308A15D9228A11B72D88
:100E30000130A0000030A1008A15E9218A11A42FF9
:100E40005D085E040319252F262FA42F8A1513226F
:100E50008A11831203136008803AFF0080307F02FA
:100E6000031D342F03305F020318372F382FA42FB0
:100E7000303083120313B0005F08613E84003008F5
:100E8000831380006008AC005F08AB0030308A1527
:100E9000D9228A11B72D61308A1559258A118312FA
:100EA0000313270883160313CB00831203132608AA
:100EB00083160313CA0083120313DD01DE01A42F7E
:100EC0000230A0000030A1008A15E9218A11A42F68
:100ED000831203130608B000B1013108003A031968
:100EE000722FA42F3008773A0319602F0C3A031998
:100EF000182F063A0319A42F033A0319A42FC93A4D
:100F000003194B2F0C3A0319ED2E063A03196C2ED8
:100F1000033A0319EB2D693A0319202F0C3A0319F0
:100F2000C22E063A0319412E033A0319C02D393A4D
:100F30000319A42F0C3A0319972E063A0319162EFB
:100F4000033A03198D2DA42F080083120313BE0149
:100F5000BF0139083A040319AE2FAF2FE62FC001A5
:100F6000C00ABD2F01300310B90DBA0DFF3E031D9D
:100F7000B32F0130BD003D08C007BA1FC02FC12FDD
:100F8000B22F01300310BE0DBF0DFF3E031DC22F57
:100F90003A083C02031DCE2F39083B02031CD12F17
:100FA000D22FD92F3908BB023A08031CBC03BC025C
:100FB0003E1401300310BA0CB90CFF3E031DDA2FAA
:100FC0000130C002031DE52FE62FC12F3F08BA00F4
:100FD0003E08B9000800033083120313BA00003042
:100FE000BB000330870007108A1523228A1138308E
:100FF00083120313870007108A1523228A11080021
:10100000FF1B0A2883137F1883170008840A03191B
:10101000FF0A080008308A000408840A82070034A6
:10102000013400340A34003464340034E8340334C6
:101030001034273449346E34673472346534733471
:1010400065342034743465346D34703420344D3458
:101050004134583449344D34413400342734433416
:0810600000342534643400342F
:10139800CC2908000134003401340034013400340D
:1013A8000730831603138100F03086008B158B17E6
:1013B8000B140800FE30831203138600FD308600EC
:1013C800FB308600F73086000800023083120313D2
:1013D80020062104031DF129F229F4299F15F52976
:1013E8009F110800013083120313A1000030A200EE
:1013F8000030A300A4008A1571248A1508008312FE
:1014080003138714C73083120313A0000B2AA00B01
:101418000A2A0E2A00008312031387100800831279
:10142800031359035A04031D1A2A1B2A222A8A1550
:10143800F6218A1583120313D901DA0108008312F1
:1014480003138714C73083120313B9002B2AB90B6F
:101458002A2A2E2A000083120313871008008316F5
:101468000313440883120313C900831603134508A2
:1014780083120313CA008A15CE238A150800831223
:1014880003131F151F19492A4A2A462A1E08BA009B
:10149800831603131E0883120313B900080083126E
:1014A8000313A100A0013A30210203185C2A5D2A27
:1014B800652A30302102031C622A632A652AA001AA
:1014C800A00A200C0800033083120313A100003087
:1014D800A2000330870007108A1503228A153830C6
:1014E80083120313870007108A1503228A15080040
:1014F80080308316031387000130850080309F00F9
:101508000130831203139F001F170830BA00003000
:10151800BB000030BC00BD008A15B0248A15080045
:10152800831203133908BB003A08BC00A12A013012
:10153800BB070318BC0A0030BC073C08FF003B0887
:1015480084008A1500208A15003A031DAC2AAD2AAA
:101558009B2A39083B02B9003A08031C3A0A3C02A4
:10156800BA0008000B1CB92ABA2ACC2A8A118C2581
:101578008A15023083120313B4000430B300BA3062
:10158800B200B20BC52AB30BC52AB40BC52A0B107F
:10159800831203133808FF0037088A0036088400CE
:1015A800350E8300FE0E7E0E090083120313AF0072
:1015B8002B08803EA1002C080318013E003EA20023
:1015C8000030A300A4008A1571248A15831203131E
:1015D8002F08AD00AE012D08A1002E08A200013091
:1015E800A3000030A4008A1571248A158A15672281
:1015F8008A15080083120313C8004408803EBA0005
:1016080045080318013E003EBB000030BC00BD0089
:101618008A15B0248A15831203134808C600C70127
:101628004608BA004708BB000130BC000030BD00C6
:101638008A15B0248A158A11EB278A1508008312A7
:101648000313A401A501201C2A2B2B2B312B2208C4
:10165800A4070318A50A2308A50701300310A20D43
:10166800A30DFF3E031D322B01300310A10CA00C6B
:10167800FF3E031D392B20082104031D442B452B55
:10168800272B2508A1002408A000080083120313B3
:10169800C100BD01BE013908BB00BC013B08BF0049
:1016A8003C08C000411C592B5A2B602B3F08BD0732
:1016B8000318BE0A4008BE0701300310BF0DC00D55
:1016C800FF3E031D612B0310C10C4108031D6D2B48
:1016D8006E2B562B3E08BA003D08B900080083124D
:1016E8000313BB003B08BA003A08BC007F2B01304B
:1016F800BA003A08BC073C08840083130008031D9D
:10170800862B872B7B2B902B0130BA003A08BC071D
:101718000130BA003A08B907390884008A150A2046
:101728008A15BA003C0884003A0880000008031DA6
:101738009E2B9F2B882B08008A157C228A158A15D8
:10174800D4218A158A1501248A15013083160313BA
:10175800C8000030C900C12B8A15EF248A158316EA
:101768000313C600C7014608C4004708C5008A1508
:1017780033228A158A15DE218A1583160313480831
:101788004904031DC82BC92BB02B8A15CC218A15F7
:101798008A11112883120313CB01CC01ED2B4C08BD
:1017A800C5004B08C4004B08490784004C080318BF
:1017B8004C0A4A07FF008A1500208A158A15FE225E
:1017C8008A15013083120313CB070318CC0A0030A3
:1017D800CC074908B9004A08BA008A1594228A1524
:1017E800831203133A084C02031DFC2B39084B02E1
:1017F800031CFF2B002CD32B08000B30831603137C
:10180800C4008030C5008A1533228A150B30831630
:101818000313C4008030C5008A1533228A15172C9B
:101828008A15DE218A15831203135D035E040319EA
:101838001E2C1F2C142C831603134B08803AFF0010
:1018480080307F02031D2A2C97304A02031C2D2C5E
:101858002E2C342C963083160313CA000030CB008C
:101868000800831203134108420403193C2C3D2C41
:101878006C2CC601C60A4B2C01300310C10DC20DD9
:10188800FF3E031D412C0130C5004508C607C21F95
:101898004E2C4F2C402C42084402031D552C410865
:1018A8004302031C582C592C5F2C4108C3024208E0
:1018B800031CC403C40201300310C20CC10CFF3E58
:1018C800031D602C0130C602031D6B2C6C2C4F2CA1
:1018D8004408C2004308C100080083120313220809
:1018E800A6002108A500260DA60CA50C260DA60C01
:1018F800A50C2508A7002608A80027088700231894
:10190800862C8A2C8312031307148D2C831203133D
:1019180007108A1503228A15831203132208A600CA
:101928002108A5000310A50DA60D0310A50DA60DF1
:101938002508A9002608AA00290887002318A52C2D
:10194800A92C831203130714AC2C8312031307105A
:101958008A1503228A150800831203133B08BF0067
:101968003A08BE003F0DBF0CBE0C3F0DBF0CBE0CAD
:101978003E08C0003F08C100400887003C18C52C3D
:10198800C92C831203130714CC2C831203130710DA
:101998008A1523228A15831203133B08BF003A08CD
:1019A800BE000310BE0DBF0D0310BE0DBF0D3E08D7
:1019B800C2003F08C300420887003C18E42CE82C0A
:1019C800831203130714EB2C8312031307108A15D1
:1019D80023228A1508008A1543228A1583120313C5
:1019E8003908BB003A08BC000030BC1BFF30BD0002
:1019F800BE0001308A156A268A15831203133E0831
:101A0800D0003D08CF003C08CE003B08CD003E305A
:101A1800CC00FA30CB003E30CA009030C9008A11A1
:101A28003F208A15831203134C0883160313B00052
:101A3800831203134B0883160313AF008312031397
:101A48004A0883160313AE0083120313490883164A
:101A58000313AD008A15D8258A15831603132E089B
:101A6800C3002D08C200223083120313D80058087F
:101A7800C70083160313430883120313C900831690
:101A88000313420883120313C800B6308A152627A9
:101A98008A151F3083120313D8005808B900B630CE
:101AA8008A1573238A15B630080083120313AD0014
:101AB800612D0130A8002808AD072D0884002030CA
:101AC800831300060319692D6A2D5D2D2D088400E6
:101AD800093000060319712D722D5D2DAB01AC0183
:101AE800AA012D0884002D300006031D7C2D7D2DB4
:101AF800862D0130A8002808AA070130A800280868
:101B0800AD07B62D2D0884002B300006031D8D2D42
:101B18008E2DB62D0130A8002808AD07B62D8312EA
:101B280003132D0884002C08A1002B08A0000A30FC
:101B3800A2000030A3008A1523238A158313000806
:101B4800831203132007A80000300318013021076F
:101B5800A9002808D03EAB0029080318013EFF3E23
:101B6800AC008E2D2D08840000088A1553228A1592
:101B78000318BF2DC02D932D831203132A080319B0
:101B8800C62DC72DD32D2B09A8002C09A900A80AFA
:101B98000319A90A2808A6002908A700D72D2C0888
:101BA800A7002B08A60008000310831603132F0DA7
:101BB800300DB100310883120313D7005708031DF5
:101BC800E62DE72DF22D003083160313B000003008
:101BD800AF000030AE000030AD00692E831603134D
:101BE8002D08B1002E08B2002F08B3003008B40049
:101BF8001F300310B40CB30CB20CB10CFF3E031D24
:101C0800FD2D3108B500350883120313D60083165D
:101C18000313AF17FF30AD05FF30AE05FF30AF053A
:101C28000030B005963083120313D702D71F1D2E3C
:101C38001E2E3C2E5708803A973E0318242E252E38
:101C4800262EE72D0130031083160313B00CAF0CBA
:101C5800AE0CAD0CFF3E031D272E0130B10031083C
:101C680083120313D707031D3A2E3B2E262E572E19
:101C780020305702031C412E422E522EE72D0130F0
:101C880083160313B1000310AD0DAE0DAF0DB00DEB
:101C9800B10B472E013083120313D7025708031DD7
:101CA800562E572E432E560803195B2E5C2E692E8E
:101CB80083160313AD09AE09AF09B009AD0A0319BC
:101CC800AE0A0319AF0A0319B00A080083120313F6
:101CD800C30043080319712E722E862EBE1F752E5F
:101CE800762E862E3B09C5003C09C6003D09C70073
:101CF8003E09C800C50A0319C60A0319C70A031909
:101D0800C80A8E2E3E08C8003D08C7003C08C60019
:101D18003B08C5003E083D043C043B04031D952ECA
:101D2800962E9F2E0030BE000030BD000030BC0053
:101D38000030BB00252F9630BF003F08C400B12EED
:101D48000130BF003F08C40701300310C80CC70C9E
:101D5800C60CC50CFF3E031DA92EFE304805031D09
:101D6800B62EB72EA42ED32E0130BF003F08C407CD
:101D78000130C507003003180130C60700300318CA
:101D88000130C707003003180130C80701300310BD
:101D9800C80CC70CC60CC50CFF3E031DCB2EFF306C
:101DA8004805031DD82ED92EB82EE52E0130C402C1
:101DB8000130BF000310C50DC60DC70DC80DBF0B00
:101DC800DE2EC71BE82EE92EEF2E02304402031840
:101DD800EE2EEF2EDA2E4418F22EF32EFB2EFF30C5
:101DE800C505FF30C6057F30C705FF30C80503109D
:101DF800C40C4408BF00C001C101C201183003105F
:101E0800BF0DC00DC10DC20DFF3E031D032F3F08BE
:101E1800C5044008C6044108C7044208C80443086A
:101E28000319172F182F1D2FBE1F1B2F1C2F1D2FF7
:101E3800C8174808BE004708BD004608BC0045084A
:101E4800BB00080083120313D2004830CA004A08B6
:101E5800CD00EB2F253053060319332F342F402F95
:101E68005308CA00520884004A08831380000130CE
:101E7800CA004A08D207EB2FCE010130C707FF304E
:101E8800470784008A150A208A15D300CA00CB01A7
:101E98004B08003A0319512FEB2F4A08003A03194F
:101EA800FB2F643A03195C2F0D3A03195C2FEB2FB3
:101EB8004D08840083130008D000840A0008D1006C
:101EC8000230CA004A08CD07D11F6B2F6C2F752F1F
:101ED8000330CA004A08CE04D009D109D00A031930
:101EE800D10AD301D30A5308CA004A07013E840025
:101EF8008A150A208A15CB008A150A208A15CC0073
:101F08004C085102031D8A2F4B08500203188D2FCD
:101F18008E2F8F2F992F0130CA004A08D30705301A
:101F28005306031D982F992F772F4E08033903194D
:101F38009E2F9F2FAA2F2D30CA00520884004A08CE
:101F4800831380000130CA004A08D2075308CA0028
:101F58004A08CF00E22F0A30C1000030C2004F0803
:101F6800CA004A07013E84008A150A208A15B9006A
:101F78008A150A208A15BA005108BC005008BB000F
:101F88008A11A5278A15831203133A08C400390851
:101F9800C3008A1535248A15831203134108303E7D
:101FA800CB004B08D3005308CA00520884004A08E3
:101FB800831380000130CA004A08D207FF30CA00E4
:101FC8004A08CF074F0A031DEA2FEB2FAF2F013026
:101FD800C707FF30470784008A150A208A15CA00F8
:101FE8004A08D3005308031DFA2FFB2F2E2F52083F
:081FF80084008313800108003E
:00000001FF
