:020000040000FA
:100000008A110F2802280800FE00030E8312031332
:10001000B7000408B8000A08B9008A15FE298A1139
:1000200011288313E830FD000830FE00B130FF00D6
:10003000E43084008A1562218A115D30FD000830A9
:10004000FE00CA30FF00513084008A1562218A11F7
:1000500083160313E001E101E201E30183120313BC
:10006000DD01DE01DF01E001E101E201E3018301E5
:100070008A15412D83160313230880398312031335
:10008000CA004A0883160313A80023088312031327
:10009000CA004A07CB004B0883160313AE00A21F09
:1000A0005228532854282E142E080319582859284A
:1000B00068282E0A031D5D285E2866280030A300EC
:1000C0000030A2000030A1000030A000A21770286C
:1000D0000030A3000030A2000030A1000030A000DA
:1000E0002708803983120313CA004A0883160313B2
:1000F000A806270883120313CA004A07CB004B083F
:1001000083160313A900A61F862887288828291488
:10011000290803198C288D289C28290A031D912859
:1001200092289A280030A7000030A6000030A500D1
:100130000030A400A617A4280030A7000030A600B5
:100140000030A5000030A40029080319A828A92818
:10015000AE282E08031DAD28AE28B7280030A30016
:100160000030A2000030A1000030A0007C2D20084B
:1001700083120313CA004A08BA0083160313260821
:100180008A15B3228A11831203133B0883160313C3
:10019000B400831203133A0883160313B300330821
:1001A00083120313CA00CB01CC01CD014D08831685
:1001B0000313AD00831203134C0883160313AC0022
:1001C000831203134B0883160313AB00831203132C
:1001D0004A0883160313AA00340883120313CA00C3
:1001E000CB01CC01CD014D0883160313B20083125D
:1001F00003134C0883160313B100831203134B0837
:1002000083160313B000831203134A0883160313E3
:10021000AF00210883120313CA004A08BA008316EC
:10022000031325088A15B3228A11831203133B088E
:1002300083160313B400831203133A0883160313BF
:10024000B300330883120313CA00CB01CC01CD01E4
:100250004A0883160313AA07831203134B080311DA
:100260000318013E0319372983160313AB078312C2
:1002700003134C0803110318013E03194229831686
:100280000313AC07831203134D0803110318013E37
:1002900003194D2983160313AD0783120313831625
:1002A0000313340883120313CA00CB01CC01CD0120
:1002B0004A0883160313AF07831203134B08031175
:1002C0000318013E0319672983160313B00783122D
:1002D00003134C0803110318013E031972298316F6
:1002E0000313B107831203134D0803110318013ED2
:1002F00003197D2983160313B20783120313831690
:100300000313220883120313CA004A08BA00831693
:10031000031324088A15B3228A11831203133B089E
:1003200083160313B400831203133A0883160313CE
:10033000B300330883120313CA00CB01CC01CD01F3
:100340004A0883160313AA07831203134B080311E9
:100350000318013E0319AF2983160313AB07831259
:1003600003134C0803110318013E0319BA2983161D
:100370000313AC07831203134D0803110318013E46
:100380000319C52983160313AD07831203138316BC
:100390000313340883120313CA00CB01CC01CD012F
:1003A0004A0883160313AF07831203134B08031184
:1003B0000318013E0319DF2983160313B0078312C4
:1003C00003134C0803110318013E0319EA2983168D
:1003D0000313B107831203134D0803110318013EE1
:1003E0000319F52983160313B20783120313831627
:1003F0000313083083120313CA0003108316031378
:10040000AA0DAB0DAC0DAD0D83120313CA0BFD2964
:1004100083160313210883120313CA004A08BA0083
:100420008316031324088A15B3228A118312031337
:100430003B0883160313B400831203133A08831690
:100440000313B300330883120313CA008316031384
:10045000340883120313CB00CC01CD014A08831664
:100460000313AA07831203134B0803110318013E59
:1004700003193D2A83160313AB07831203134C0899
:1004800003110318013E0319482A83160313AC070E
:10049000831203134D0803110318013E0319532A55
:1004A00083160313AD078312031383160313200867
:1004B00083120313CA004A08BA00831603132508DF
:1004C0008A15B3228A11831203133B088316031380
:1004D000B400831203133A0883160313B3003308DE
:1004E00083120313CA008316031334088312031301
:1004F000CB00CC01CD014A0883160313AA0783124F
:1005000003134B0803110318013E03198A2A8316AB
:100510000313AB07831203134C0803110318013EA6
:100520000319952A83160313AC07831203134D088E
:1005300003110318013E0319A02A83160313AD0704
:100540008312031383160313083083120313CA00A4
:10055000031083160313AA0DAB0DAC0DAD0D831262
:100560000313CA0BA82A831603132008831203134C
:10057000CA004A08BA008316031324088A15B32256
:100580008A11831203133B0883160313B4008312EA
:1005900003133A0883160313B300330883120313BB
:1005A000CA0083160313340883120313CB00CC0153
:1005B000CD014A0883160313AA07831203134B08BD
:1005C00003110318013E0319E82A83160313AB072E
:1005D000831203134C0803110318013E0319F32A75
:1005E00083160313AC07831203134D08031103187A
:1005F000013E0319FE2A83160313AD07831203136A
:1006000083160313210883120313CA004A08BA0091
:100610008316031326088A15B3228A118312031343
:100620003B0883160313B400831203133A0883169E
:100630000313B300330883120313CA008316031392
:10064000340883120313CB00CC01CD014A08831672
:100650000313AF07831203134B0803110318013E62
:100660000319352B83160313B007831203134C08A9
:1006700003110318013E0319402B83160313B1071E
:10068000831203134D0803110318013E03194B2B6A
:1006900083160313B207831203138316031322086E
:1006A00083120313CA004A08BA00831603132508ED
:1006B0008A15B3228A11831203133B08831603138E
:1006C000B400831203133A0883160313B3003308EC
:1006D00083120313CA00831603133408831203130F
:1006E000CB00CC01CD014A0883160313AF07831258
:1006F00003134B0803110318013E0319822B8316C1
:100700000313B007831203134C0803110318013EAF
:1007100003198D2B83160313B107831203134D089E
:1007200003110318013E0319982B83160313B20714
:100730008312031383160313220883120313CA00C0
:100740004A08BA008316031326088A15B3228A11B1
:10075000831203133B0883160313B400831203139D
:100760003A0883160313B300330883120313CA0035
:1007700083160313340883120313CB00CC01CD017D
:1007800008300310CA0DCB0DCC0DCD0DFF3E031D5F
:10079000C12B4A0883160313AF07831203134B08B8
:1007A00003110318013E0319D82B83160313B00756
:1007B000831203134C0803110318013E0319E32BA2
:1007C00083160313B107831203134D080311031893
:1007D000013E0319EE2B83160313B2078312031392
:1007E000831603132A0883120313CA008316031304
:1007F0002B0883120313CB00831603132C088312D8
:100800000313CC00831603132D0883120313CD00AA
:1008100018300310CD0CCC0CCB0CCA0CFF3E031DC2
:10082000092C4A0883160313AF07831203134B08DE
:1008300003110318013E0319202C83160313B0077C
:10084000831203134C0803110318013E03192B2CC8
:1008500083160313B107831203134D080311031802
:10086000013E0319362C83160313B20783120313B8
:1008700083160313083083120313CA000310831670
:100880000313AA0DAB0DAC0DAD0D83120313CA0BF0
:100890003E2C831603132E08290783120313CA0064
:1008A000CB01CB0D4A08823E83160313B30083129B
:1008B00003134B080318013EFF3E83160313B400D5
:1008C0008E2C013083120313CA0003108316031306
:1008D000AF0DB00DB10DB20D83120313CA0B652C11
:1008E00083160313AD1F752C762C772C2F14013033
:1008F00083120313CA00031083160313AA0DAB0D52
:10090000AC0DAD0D83120313CA0B7B2CFF30831685
:100910000313B3070318B40AFF30B407B11F912CB7
:10092000922C612CA901AD1F962C972CC52CFF3061
:100930002A0583120313CA00FF30831603132B0505
:1009400083120313CB00FF30831603132C0583128D
:100950000313CC007F30831603132D05831203137A
:10096000CD004D084C044B044A040319B82CB92C93
:10097000BE2C83160313A901A90AC52C83160313E1
:100980002F1CC32CC42CC52CB92C29080319C92C25
:10099000CA2C172D0130AF07003003180130B00703
:1009A000003003180130B107003003180130B207DE
:1009B000321CDB2CDC2C172D2F0883120313CA00EA
:1009C00083160313300883120313CB00831603131B
:1009D000310883120313CC008316031332088312E9
:1009E0000313CD000130CE004D0DCD0CCC0CCB0C43
:1009F000CA0CCE0BF42C4D0883160313B2008312DD
:100A000003134C0883160313B100831203134B081E
:100A100083160313B000831203134A0883160313CB
:100A2000AF000130B3070318B40A0030B40734082C
:100A3000803AFF0080307F02031D202DFF303302FB
:100A4000031C232D242D2F2D7F3083160313B2007A
:100A50008030B1000030B0000030AF006C2D831644
:100A600003133408803AFF0080307F02031D3A2DC3
:100A70000130330203183D2D3E2D4A2D00308316E0
:100A80000313B2000030B1000030B0000030AF00FE
:100A9000A8016C2D83160313330883120313CA00B5
:100AA0004A0883160313AE00FF30AF05FF30B005D0
:100AB0007F30B1050030B2052E1C5F2D602D612DF9
:100AC000B1172E0883120313CA0003104A0CCB007F
:100AD0004B0883160313B200280883120313CA00BD
:100AE0004A0883160313B2043208A3003108A20097
:100AF0003008A1002F08A000080083160313A500EA
:100B0000493083120313CB004B0883160313A00054
:100B1000922E2530260603198E2D8F2DA32D260803
:100B200083120313CB00831603132508840083125A
:100B300003134B08831380000130CB004B0883164E
:100B40000313A507922EA101013083120313C807D6
:100B5000FF30480784008A150A208A118316031380
:100B6000A60083120313CB00CC014C08003A0319F2
:100B7000BA2D922E4B08003A0319A52E643A031998
:100B8000C52D0D3A0319C52D922E83160313200887
:100B9000840083130008A300840A0008A400023024
:100BA00083120313CB004B0883160313A007A41F63
:100BB000DA2DDB2DE82D033083120313CB004B0815
:100BC00083160313A104A309A409A30A0319A40A01
:100BD000A601A60A260883120313CB004B07013E89
:100BE00084008A150A208A11CC008A150A208A11ED
:100BF000CD004D08831603132402031D052E831216
:100C000003134C088316031323020318082E092E1E
:100C10000A2E182E013083120313CB004B088316C3
:100C20000313A60705302606031D172E182EEA2DDE
:100C30002108033903191D2E1E2E312E2D3083124B
:100C40000313CB00831603132508840083120313B8
:100C50004B08831380000130CB004B08831603132D
:100C6000A507260883120313CB004B088316031332
:100C7000A200852E0A3083120313C2000030C30085
:100C800083160313220883120313CB004B07013E84
:100C900084008A150A208A11BA008A150A208A114E
:100CA000BB0083160313240883120313BD008316AD
:100CB0000313230883120313BC008A15AE248A1180
:100CC000831203133B08C5003A08C4008A15F423B5
:100CD0008A11831203134208303ECC004C0883165D
:100CE0000313A600260883120313CB0083160313F5
:100CF00025088400831203134B08831380000130FE
:100D0000CB004B0883160313A507FF308312031390
:100D1000CB004B0883160313A207220A031D912E52
:100D2000922E3A2E01308312C807FF304807840004
:100D30008A150A208A11CB004B0883160313A600DC
:100D40002608031DA42EA52E892D8316031325081E
:100D500084008313800108003C2F8A150D218A111D
:100D600037308A15DC228A11722F8A150D218A11DB
:100D700038308A15DC228A11722F8A150D218A11CA
:100D800039308A15DC228A11722F8A150D218A11B9
:100D900034308A15DC228A11722F8A150D218A11AE
:100DA00035308A15DC228A11722F8A150D218A119D
:100DB00036308A15DC228A11722F8A150D218A118C
:100DC00031308A15DC228A11722F8A150D218A1181
:100DD00032308A15DC228A11722F8A150D218A1170
:100DE00033308A15DC228A11722F30308A15DC22CA
:100DF0008A11722F013083160313E2000030E300E2
:100E0000E001E101722F83160313E201E3010130D7
:100E1000E0000030E100013083120313A000003035
:100E2000A1008A15E3208A11722F83160313E201B1
:100E3000E3010130E0000030E100023083120313CF
:100E4000A0000030A1008A15E3208A11722F5F30C4
:100E50008A1173278A118312031327088316031339
:100E6000E70083120313260883160313E600831298
:100E70000313DB01DC01722F831203130608B20097
:100E8000B3013308003A0319462F722F3208773A1C
:100E90000319152F0C3A0319032F063A0319FA2EDA
:100EA000CA3A0319272F0C3A0319ED2E063A0319F3
:100EB000D52E033A0319BD2E693A0319F52E0C3AC3
:100EC0000319E52E063A0319CD2E033A0319B52E60
:100ED000353A0319DD2E063A0319C52E033A0319D4
:100EE000AD2E722F080083120313AD007B2F01304B
:100EF000A8002808AD072D088400203083130006C1
:100F00000319832F842F772F2D08840009300006C2
:100F100003198B2F8C2F772FAB01AC01AA012D0861
:100F200084002D300006031D962F972FA02F01302F
:100F3000A8002808AA070130A8002808AD07D02F6C
:100F40002D0884002B300006031DA72FA82FD02FBB
:100F50000130A8002808AD07D02F831203132D08F5
:100F600084002C08A1002B08A0000A30A200003049
:100F7000A3008A158C228A1183130008831203139D
:100F80002007A8000030031801302107A900280815
:100F9000D03EAB0029080318013EFF3EAC00A82F4D
:100FA0002D08840000088A156F218A110318D92F93
:100FB000DA2FAD2F831203132A080319E02FE12F34
:100FC000ED2F2B09A8002C09A900A80A0319A90ACA
:100FD0002808A6002908A700F12F2C08A7002B0835
:100FE000A60008000230831203133A063B04031DD7
:0E0FF000FA2FFB2FFD2F9F15FE2F9F110800DB
:10100000FF1B0A2883137F1883170008840A03191B
:10101000FF0A080008308A000408840A82070034A6
:10102000013400340A34003464340034E8340334C6
:101030001034273449346E34673472346534733471
:1010400065342034743465346D34703420344D3458
:101050004134583449344D344134003425346434F7
:0C10600027344334003425346434003459
:1011620001340034963400340730831603138100AF
:10117200F03086008B158B170B140800FE3083129B
:1011820003138600FD308600FB308600F7308600B0
:101192000800503445344C344934473452344F34C7
:1011A200203401340034013400340130831203133B
:1011B200A1000030A2000030A300A4008A15302450
:1011C2008A15080002308312031320062104031D2E
:1011D200EB28EC28EE289F15EF289F11080001301C
:1011E20083120313BB000030BC000030BD00BE0000
:1011F2008A156F248A150800831203138714C730D7
:1012020083120313A0000529A00B0429082900005A
:1012120083120313871008008312031359035A041D
:10122200031D142915291C298A15D6208A15831213
:101232000313D901DA010800831203138714C7309C
:1012420083120313BA002529BA0B24292829000086
:101252008312031387100800831603134D088312A9
:101262000313CA00831603134E0883120313CB0021
:101272008A158E238A150800831203131F151F195E
:101282004329442940291E08BB00831603131E0864
:1012920083120313BA000800831603138701831213
:1012A2000313981718128316031398161812181599
:1012B2000C168C121930990008007E088A007F08EB
:1012C20082008A155E218A158000840A04087D0640
:1012D20003190034FF0A0319FE0A62298312031359
:1012E200A100A0013A302102031878297929812925
:1012F20030302102031C7E297F298129A001A00A06
:10130200200C0800033083120313A1000030A20056
:101312000330870007108A15FD208A1538308312A2
:101322000313870007108A15FD208A150800033071
:1013320083120313BB000030BC0003308700071088
:101342008A151D218A15383083120313870007106E
:101352008A151D218A150800803083160313870021
:101362000130850080309F000130831203139F00FB
:101372001F170830BB000030BC000030BD00BE00AB
:101382008A156F248A150800463084005130831272
:101392000313C2000408C3000830C40042088400DA
:1013A20083130008C500C20A430884004508800070
:1013B200C30AC40BCF2946308A1507238A150800B1
:1013C200831203133B08831603136702031DEF29DD
:1013D200831203133A08831603136602031CF229CD
:1013E200F4290130F529003083120313BC00BD013A
:1013F2003C08BA003D08BB0008000B1C012A022A67
:10140200142A8A11AC268A15023083120313B600FD
:101412000430B500BA30B400B40B0D2AB50B0D2A56
:10142200B60B0D2A0B108B178312031339088A008F
:1014320038088400370E8300FE0E7E0E09008312E8
:1014420003133A08BC003B08BD002D2A0130BC073B
:101452000318BD0A0030BD073D08FF003C088400A8
:101462008A1500208A15003A031D382A392A272AAC
:101472003A083C02BA003B08031C3B0A3D02BB008F
:10148200080083120313AF002B08803EA1002C0832
:101492000318013E003EA2000030A300A4008A15FA
:1014A20030248A15831203132F08AD00AE012D08D4
:1014B200A1002E08A2000130A3000030A4008A156A
:1014C20030248A158A1583218A1508008312031392
:1014D200C9004508803EBB0046080318013E003E95
:1014E200BC000030BD00BE008A156F248A1583122D
:1014F20003134908C700C8014708BB004808BC00DD
:101502000130BD000030BE008A156F248A158A158D
:1015120098218A15080083120313A401A501201C37
:10152200932A942A9A2A2208A4070318A50A2308B0
:10153200A50701300310A20DA30DFF3E031D9B2A38
:1015420001300310A10CA00CFF3E031DA22A2008AB
:101552002104031DAD2AAE2A902A2508A1002408E1
:10156200A000080083120313C200BE01BF013A08A3
:10157200BC00BD013C08C0003D08C100421CC22A9B
:10158200C32AC92A4008BE070318BF0A4108BF0779
:1015920001300310C00DC10DFF3E031DCA2A031006
:1015A200C20C4208031DD62AD72ABF2A3F08BB0015
:1015B2003E08BA00080083120313B1005B085C0402
:1015C2000319E42AE52A062B00305E0203300319D0
:1015D2005D020318ED2AEE2A062B3108B0005D08E1
:1015E2005F3E84003008831380005E08AC005D0813
:1015F200AB0031088A1542228A1501308312031387
:10160200DD070318DE0A0030DE0708008312031329
:10161200C100BF01C0011F2B0C1E102B112B0D2B63
:101622003F084107BE003E0884008313000899006A
:101632000130BF070318C00A0030C0074108BA00D2
:101642000030BB008A1520228A15831203133B083F
:101652004002031D2E2B3A083F02031C312B322B72
:101662000D2B080083120313BC003C08BB003B088F
:10167200BD003F2B0130BB003B08BD073D08840085
:1016820083130008031D462B472B3B2B502B0130A5
:10169200BB003B08BD070130BB003B08BA073A0854
:1016A20084008A150A208A15BB003D0884003B0885
:1016B20080000008031D5E2B5F2B482B08000B30B7
:1016C20083160313CD008030CE008A152D218A1592
:1016D2000B3083160313CD008030CE008A152D21E6
:1016E2008A15762B8A15BF208A15831203135B0392
:1016F2005C0403197D2B7E2B732B0030831603139E
:101702006702973003196602031C882B892B8D2BE5
:101712009630E6000030E700080083120313CC0184
:10172200CD01AD2B4D08C6004C08C5004C084A0738
:1017320084004D0803184D0A4B07FF008A1500204C
:101742008A158A1567228A15013083120313CC0782
:101752000318CD0A0030CD074A08BA004B08BB0077
:101762008A1520228A15831203133B084D02031D9A
:10177200BC2B3A084C02031CBF2BC02B932B080036
:101782008A15F4248A15831603133F08D2003E08F3
:10179200D100520883120313BB00831603135108AE
:1017A20083120313BA008A15E1218A1583120313E7
:1017B2003A083B040319DE2BDF2BE22B8A15C521E5
:1017C2008A158A15A0258A1583160313CF00D00126
:1017D2004F08CD005008CE008A152D218A158A1592
:1017E200BF208A1508008312031342084304031919
:1017F200FB2BFC2B2B2CC701C70A0A2C0130031030
:10180200C20DC30DFF3E031D002C0130C600460869
:10181200C707C31F0D2C0E2CFF2B43084502031DC7
:10182200142C42084402031C172C182C1E2C4208AC
:10183200C4024308031CC503C50201300310C30CD4
:10184200C20CFF3E031D1F2C0130C702031D2A2CB0
:101852002B2C0E2C4508C3004408C200080083123A
:1018620003132208A6002108A500260DA60CA50C2C
:10187200260DA60CA50C2508A7002608A8002708F7
:1018820087002318452C492C8312031307144C2C70
:101892008312031307108A15FD208A15831203137E
:1018A2002208A6002108A5000310A50DA60D03100D
:1018B200A50DA60D2508A9002608AA00290887005B
:1018C2002318642C682C8312031307146B2C8312C5
:1018D200031307108A15FD208A15080083120313CB
:1018E2003C08C0003B08BF00400DC00CBF0C400DBF
:1018F200C00CBF0C3F08C1004008C200410887006D
:101902003D18842C882C8312031307148B2C83120A
:10191200031307108A151D218A15831203133C082D
:10192200C0003B08BF000310BF0DC00D0310BF0D68
:10193200C00D3F08C3004008C400430887003D189B
:10194200A32CA72C831203130714AA2C83120313AC
:1019520007108A151D218A15080083120313C0017E
:10196200C1013A083B040319B72CB82CEF2CBF0174
:10197200BF0AC62C01300310BA0DBB0DFF3E031D7A
:10198200BC2C0130BE003E08BF07BB1FC92CCA2CAD
:10199200BB2C01300310C00DC10DFF3E031DCB2C2B
:1019A2003B083D02031DD72C3A083C02031CDA2CEB
:1019B200DB2CE22C3A08BC023B08031CBD03BD022F
:1019C200401401300310BB0CBA0CFF3E031DE32C84
:1019D2000130BF02031DEE2CEF2CCA2C4108BB00C4
:1019E2004008BA0008008A153D218A1583120313A4
:1019F2003A08BC003B08BD000030BD1BFF30BE00F2
:101A0200BF0001308A1544278A15831203133F0849
:101A120083160313A700831203133E0883160313CE
:101A2200A600831203133D0883160313A500831235
:101A320003133C0883160313A4003E30A300FA30BC
:101A4200A2003E30A1009030A0008A113A208A15EF
:101A5200831603132308B8002208B7002108B60032
:101A62002008B5008A150C268A158316031336083A
:101A7200C1003508C0004108BF004008BE00080090
:101A82008A15AD218A158A15B5208A158A154D2128
:101A92008A15013083160313DE000030DF00932D18
:101AA200640865040319562D572D632D8A1560238A
:101AB2008A1583160313E401E5010130E0000030CA
:101AC200E100932D600861040319682D692D7B2DB7
:101AD200C33083160313DD00CC30DC00DC0B6F2D2A
:101AE200DD0B6F2D742D8A15F0208A158A15C123FE
:101AF2008A15932D620863040319802D812D932D7D
:101B0200C33083160313DD00CC30DC00DC0B872DE1
:101B1200DD0B872D8C2D8A15F0208A158A159E26BD
:101B22008A15932D831603135E085F04031D9A2DF5
:101B32009B2D512D8A1102208A158A110F288A1590
:101B42003D218A15831203133A08BC003B08BD00ED
:101B52000030BD1BFF30BE00BF0001308A15442794
:101B62008A15831203133F0883160313A7008312F7
:101B720003133E0883160313A600831203133D08C2
:101B820083160313A500831203133C088316031361
:101B9200A4003E30A300FA30A2003E30A1009030F3
:101BA200A0008A113A208A15831603132308B8006D
:101BB2002208B7002108B6002008B5008A150C26B5
:101BC2008A15831603133608CC003508CB0024305F
:101BD200BE003E0883120313C800831603134C0889
:101BE20083120313CA00831603134B0883120313D1
:101BF200C900BF308A117D258A152130831603134F
:101C0200BE003E0883120313BA00BF308A15332385
:101C12008A15BF300800031083160313370D380DE1
:101C2200B900390883120313D0005008031D1A2E7D
:101C32001B2E262E003083160313B8000030B70087
:101C42000030B6000030B5009D2E83160313350810
:101C5200B9003608BA003708BB003808BC001F308C
:101C62000310BC0CBB0CBA0CB90CFF3E031D312E89
:101C72003908BD003D0883120313CF0083160313F6
:101C8200B717FF30B505FF30B605FF30B705003096
:101C9200B805963083120313D002D01F512E522E54
:101CA200702E5008803A973E0318582E592E5A2EFD
:101CB2001B2E0130031083160313B80CB70CB60C9D
:101CC200B50CFF3E031D5B2E0130B90039088312AB
:101CD2000313D007031D6E2E6F2E5A2E8B2E20302B
:101CE2005002031C752E762E862E1B2E0130831673
:101CF2000313B9000310B50DB60DB70DB80DB90B2E
:101D02007B2E013083120313D0025008031D8A2E4A
:101D12008B2E772E4F0803198F2E902E9D2E831611
:101D22000313B509B609B709B809B50A0319B60A02
:101D32000319B70A0319B80A080001308312031302
:101D4200BA000030BB008A11F2278A15413083168F
:101D52000313D000EE30CF00CF0BAD2ED00BAD2E43
:101D62008A15F4248A15831603133F08D7003E0808
:101D7200D600023083120313BA000030BB008A116E
:101D8200F2278A15413083160313D000EE30CF00BC
:101D9200CF0BC92ED00BC92E8A15F4248A158316AF
:101DA20003133F08D9003E08D80057085902031D03
:101DB200DC2E560858020318DF2EE02EFF2E58089C
:101DC2005602DA005908031C590A5702DB001F3079
:101DD200CF004F0883120313C800831603135B0856
:101DE20083120313CA00831603135A0883120313C0
:101DF200C900D1308A117D258A151D2F5608580237
:101E0200DA005708031C570A5902DB001F30CF00C3
:101E12004F0883120313C800831603135B0883124F
:101E22000313CA00831603135A0883120313C9004B
:101E3200D1308A117D258A15831603135B0883121C
:101E42000313BB00831603135A0883120313BA0049
:101E52008A15E1218A15831203133A083B040319F8
:101E6200332F342F372F8A15C5218A15D130831687
:101E72000313CD000030CE008A152D218A158A1554
:101E8200BF208A15080083120313C40044080319F3
:101E92004B2F4C2F602FBF1F4F2F502F602F3C090D
:101EA200C6003D09C7003E09C8003F09C900C60A6D
:101EB2000319C70A0319C80A0319C90A682F3F0878
:101EC200C9003E08C8003D08C7003C08C6003F08DC
:101ED2003E043D043C04031D6F2F702F792F003008
:101EE200BF000030BE000030BD000030BC00FF2F3C
:101EF2009630C0004008C5008B2F0130C00040085A
:101F0200C50701300310C90CC80CC70CC60CFF3E34
:101F1200031D832FFE304905031D902F912F7E2F25
:101F2200AD2F0130C0004008C5070130C6070030A0
:101F320003180130C707003003180130C80700300A
:101F420003180130C90701300310C90CC80CC70CB3
:101F5200C60CFF3E031DA52FFF304905031DB22FFE
:101F6200B32F922FBF2F0130C5020130C0000310E2
:101F7200C60DC70DC80DC90DC00BB82FC81BC22F87
:101F8200C32FC92F023045020318C82FC92FB42FFF
:101F92004518CC2FCD2FD52FFF30C605FF30C705F2
:101FA2007F30C805FF30C9050310C50C4508C000C5
:101FB200C101C201C30118300310C00DC10DC20D11
:101FC200C30DFF3E031DDD2F4008C6044108C704B0
:101FD2004208C8044308C90444080319F12FF22F28
:101FE200F72FBF1FF52FF62FF72FC9174908BF008C
:0E1FF2004808BE004708BD004608BC000800B5
:00000001FF
